{
  "_format": "hh-sol-artifact-1",
  "contractName": "CherrioProjectTest",
  "sourceName": "src/web3/contracts/CherrioProjectTest.sol",
  "abi": [
    {
      "inputs": [],
      "stateMutability": "nonpayable",
      "type": "constructor"
    },
    {
      "inputs": [],
      "name": "counter",
      "outputs": [
        {
          "internalType": "uint8",
          "name": "",
          "type": "uint8"
        }
      ],
      "stateMutability": "view",
      "type": "function"
    },
    {
      "inputs": [],
      "name": "increment",
      "outputs": [],
      "stateMutability": "nonpayable",
      "type": "function"
    }
  ],
  "bytecode": "0x608060405234801561001057600080fd5b5060008060006101000a81548160ff021916908360ff16021790555061017f8061003b6000396000f3fe608060405234801561001057600080fd5b50600436106100365760003560e01c806361bc221a1461003b578063d09de08a14610059575b600080fd5b610043610063565b60405161005091906100c8565b60405180910390f35b610061610074565b005b60008054906101000a900460ff1681565b60016000808282829054906101000a900460ff166100929190610112565b92506101000a81548160ff021916908360ff160217905550565b600060ff82169050919050565b6100c2816100ac565b82525050565b60006020820190506100dd60008301846100b9565b92915050565b7f4e487b7100000000000000000000000000000000000000000000000000000000600052601160045260246000fd5b600061011d826100ac565b9150610128836100ac565b92508260ff0382111561013e5761013d6100e3565b5b82820190509291505056fea26469706673582212205226827d2425d5235c75c4fbc17ad00bbffbf63b2e03bd5f75bdae79c04160f064736f6c63430008090033",
  "linkReferences": {},
  "deployedLinkReferences": {}
}