{
  "_format": "hh-sol-artifact-1",
  "contractName": "CherrioProjectLock",
  "sourceName": "src/web3/contracts/CherrioProjectLock.sol",
  "abi": [
    {
      "inputs": [
        {
          "internalType": "address",
          "name": "counterAddress",
          "type": "address"
        }
      ],
      "stateMutability": "nonpayable",
      "type": "constructor"
    },
    {
      "inputs": [],
      "name": "counterIncrement",
      "outputs": [],
      "stateMutability": "nonpayable",
      "type": "function"
    }
  ],
  "bytecode": "0x608060405234801561001057600080fd5b50604051610201380380610201833981810160405281019061003291906100db565b806000806101000a81548173ffffffffffffffffffffffffffffffffffffffff021916908373ffffffffffffffffffffffffffffffffffffffff16021790555050610108565b600080fd5b600073ffffffffffffffffffffffffffffffffffffffff82169050919050565b60006100a88261007d565b9050919050565b6100b88161009d565b81146100c357600080fd5b50565b6000815190506100d5816100af565b92915050565b6000602082840312156100f1576100f0610078565b5b60006100ff848285016100c6565b91505092915050565b60eb806101166000396000f3fe6080604052348015600f57600080fd5b506004361060285760003560e01c806360598c0114602d575b600080fd5b60336035565b005b60008054906101000a900473ffffffffffffffffffffffffffffffffffffffff1673ffffffffffffffffffffffffffffffffffffffff1663d09de08a6040518163ffffffff1660e01b8152600401600060405180830381600087803b158015609c57600080fd5b505af115801560af573d6000803e3d6000fd5b5050505056fea264697066735822122051526c3259572a183b3c6e067492f4af5b0a218a08f40e7997729652b78bf67064736f6c63430008090033",
  "linkReferences": {},
  "deployedLinkReferences": {}
}