{
  "_format": "hh-sol-artifact-1",
  "contractName": "CherrioProject",
  "sourceName": "src/web3/contracts/CherrioProject.sol",
  "abi": [
    {
      "inputs": [
        {
          "internalType": "uint256",
          "name": "_goal",
          "type": "uint256"
        },
        {
          "internalType": "uint256",
          "name": "_duration",
          "type": "uint256"
        }
      ],
      "stateMutability": "nonpayable",
      "type": "constructor"
    },
    {
      "anonymous": false,
      "inputs": [
        {
          "indexed": false,
          "internalType": "string",
          "name": "description",
          "type": "string"
        },
        {
          "indexed": false,
          "internalType": "address",
          "name": "recipient",
          "type": "address"
        },
        {
          "indexed": false,
          "internalType": "uint256",
          "name": "value",
          "type": "uint256"
        }
      ],
      "name": "CreateSpendingRequest",
      "type": "event"
    },
    {
      "anonymous": false,
      "inputs": [
        {
          "indexed": false,
          "internalType": "address",
          "name": "donor",
          "type": "address"
        },
        {
          "indexed": false,
          "internalType": "uint256",
          "name": "value",
          "type": "uint256"
        }
      ],
      "name": "Donation",
      "type": "event"
    },
    {
      "anonymous": false,
      "inputs": [
        {
          "indexed": false,
          "internalType": "uint256",
          "name": "index",
          "type": "uint256"
        },
        {
          "indexed": false,
          "internalType": "uint256",
          "name": "value",
          "type": "uint256"
        }
      ],
      "name": "MakePayment",
      "type": "event"
    },
    {
      "anonymous": false,
      "inputs": [
        {
          "indexed": true,
          "internalType": "address",
          "name": "oldOwner",
          "type": "address"
        },
        {
          "indexed": true,
          "internalType": "address",
          "name": "newOwner",
          "type": "address"
        }
      ],
      "name": "OwnerSet",
      "type": "event"
    },
    {
      "anonymous": false,
      "inputs": [
        {
          "indexed": false,
          "internalType": "uint256",
          "name": "startedAt",
          "type": "uint256"
        },
        {
          "indexed": false,
          "internalType": "uint256",
          "name": "deadline",
          "type": "uint256"
        }
      ],
      "name": "ProjectActivated",
      "type": "event"
    },
    {
      "anonymous": false,
      "inputs": [],
      "name": "ProjectEnded",
      "type": "event"
    },
    {
      "anonymous": false,
      "inputs": [
        {
          "indexed": false,
          "internalType": "uint256",
          "name": "index",
          "type": "uint256"
        },
        {
          "indexed": false,
          "internalType": "uint256",
          "name": "numberOfVoters",
          "type": "uint256"
        }
      ],
      "name": "VoteForRequest",
      "type": "event"
    },
    {
      "inputs": [],
      "name": "activate",
      "outputs": [],
      "stateMutability": "nonpayable",
      "type": "function"
    },
    {
      "inputs": [],
      "name": "admin",
      "outputs": [
        {
          "internalType": "address",
          "name": "",
          "type": "address"
        }
      ],
      "stateMutability": "view",
      "type": "function"
    },
    {
      "inputs": [
        {
          "internalType": "address",
          "name": "newOwner",
          "type": "address"
        }
      ],
      "name": "changeOwner",
      "outputs": [],
      "stateMutability": "nonpayable",
      "type": "function"
    },
    {
      "inputs": [],
      "name": "cherrioProjectActivator",
      "outputs": [
        {
          "internalType": "address",
          "name": "",
          "type": "address"
        }
      ],
      "stateMutability": "view",
      "type": "function"
    },
    {
      "inputs": [
        {
          "internalType": "string",
          "name": "_description",
          "type": "string"
        },
        {
          "internalType": "address",
          "name": "_recipient",
          "type": "address"
        },
        {
          "internalType": "uint256",
          "name": "_value",
          "type": "uint256"
        }
      ],
      "name": "createSpendingRequest",
      "outputs": [],
      "stateMutability": "nonpayable",
      "type": "function"
    },
    {
      "inputs": [],
      "name": "deadline",
      "outputs": [
        {
          "internalType": "uint256",
          "name": "",
          "type": "uint256"
        }
      ],
      "stateMutability": "view",
      "type": "function"
    },
    {
      "inputs": [],
      "name": "donate",
      "outputs": [],
      "stateMutability": "payable",
      "type": "function"
    },
    {
      "inputs": [
        {
          "internalType": "address",
          "name": "",
          "type": "address"
        }
      ],
      "name": "donations",
      "outputs": [
        {
          "internalType": "uint256",
          "name": "",
          "type": "uint256"
        }
      ],
      "stateMutability": "view",
      "type": "function"
    },
    {
      "inputs": [],
      "name": "duration",
      "outputs": [
        {
          "internalType": "uint256",
          "name": "",
          "type": "uint256"
        }
      ],
      "stateMutability": "view",
      "type": "function"
    },
    {
      "inputs": [],
      "name": "endedAt",
      "outputs": [
        {
          "internalType": "uint256",
          "name": "",
          "type": "uint256"
        }
      ],
      "stateMutability": "view",
      "type": "function"
    },
    {
      "inputs": [],
      "name": "getCurrentTime",
      "outputs": [
        {
          "internalType": "uint256",
          "name": "",
          "type": "uint256"
        }
      ],
      "stateMutability": "view",
      "type": "function"
    },
    {
      "inputs": [],
      "name": "getData",
      "outputs": [
        {
          "internalType": "address",
          "name": "_owner",
          "type": "address"
        },
        {
          "internalType": "enum CherrioProject.Stages",
          "name": "_stage",
          "type": "uint8"
        },
        {
          "internalType": "uint256",
          "name": "_minimumDonation",
          "type": "uint256"
        },
        {
          "internalType": "uint256",
          "name": "_startedAt",
          "type": "uint256"
        },
        {
          "internalType": "uint256",
          "name": "_deadline",
          "type": "uint256"
        },
        {
          "internalType": "uint256",
          "name": "_endedAt",
          "type": "uint256"
        },
        {
          "internalType": "uint256",
          "name": "_raisedAmount",
          "type": "uint256"
        },
        {
          "internalType": "uint256",
          "name": "_numDonations",
          "type": "uint256"
        }
      ],
      "stateMutability": "view",
      "type": "function"
    },
    {
      "inputs": [],
      "name": "getOwner",
      "outputs": [
        {
          "internalType": "address",
          "name": "",
          "type": "address"
        }
      ],
      "stateMutability": "view",
      "type": "function"
    },
    {
      "inputs": [],
      "name": "getRefund",
      "outputs": [],
      "stateMutability": "nonpayable",
      "type": "function"
    },
    {
      "inputs": [
        {
          "internalType": "uint256",
          "name": "_index",
          "type": "uint256"
        }
      ],
      "name": "getRequest",
      "outputs": [
        {
          "internalType": "string",
          "name": "_description",
          "type": "string"
        },
        {
          "internalType": "uint256",
          "name": "_value",
          "type": "uint256"
        },
        {
          "internalType": "address",
          "name": "_recipient",
          "type": "address"
        },
        {
          "internalType": "bool",
          "name": "_completed",
          "type": "bool"
        },
        {
          "internalType": "uint256",
          "name": "_numVoters",
          "type": "uint256"
        }
      ],
      "stateMutability": "view",
      "type": "function"
    },
    {
      "inputs": [],
      "name": "getRequests",
      "outputs": [
        {
          "internalType": "string[]",
          "name": "_descriptions",
          "type": "string[]"
        },
        {
          "internalType": "uint256[]",
          "name": "_values",
          "type": "uint256[]"
        },
        {
          "internalType": "address[]",
          "name": "_recipients",
          "type": "address[]"
        },
        {
          "internalType": "bool[]",
          "name": "_completed",
          "type": "bool[]"
        },
        {
          "internalType": "uint256[]",
          "name": "_numVoters",
          "type": "uint256[]"
        }
      ],
      "stateMutability": "view",
      "type": "function"
    },
    {
      "inputs": [
        {
          "internalType": "address",
          "name": "_address",
          "type": "address"
        }
      ],
      "name": "getVotes",
      "outputs": [
        {
          "internalType": "bool[]",
          "name": "_votes",
          "type": "bool[]"
        }
      ],
      "stateMutability": "view",
      "type": "function"
    },
    {
      "inputs": [],
      "name": "goal",
      "outputs": [
        {
          "internalType": "uint256",
          "name": "",
          "type": "uint256"
        }
      ],
      "stateMutability": "view",
      "type": "function"
    },
    {
      "inputs": [],
      "name": "minimumDonation",
      "outputs": [
        {
          "internalType": "uint256",
          "name": "",
          "type": "uint256"
        }
      ],
      "stateMutability": "view",
      "type": "function"
    },
    {
      "inputs": [],
      "name": "numDonations",
      "outputs": [
        {
          "internalType": "uint256",
          "name": "",
          "type": "uint256"
        }
      ],
      "stateMutability": "view",
      "type": "function"
    },
    {
      "inputs": [],
      "name": "numDonors",
      "outputs": [
        {
          "internalType": "uint256",
          "name": "",
          "type": "uint256"
        }
      ],
      "stateMutability": "view",
      "type": "function"
    },
    {
      "inputs": [],
      "name": "numRequests",
      "outputs": [
        {
          "internalType": "uint256",
          "name": "",
          "type": "uint256"
        }
      ],
      "stateMutability": "view",
      "type": "function"
    },
    {
      "inputs": [],
      "name": "raisedAmount",
      "outputs": [
        {
          "internalType": "uint256",
          "name": "",
          "type": "uint256"
        }
      ],
      "stateMutability": "view",
      "type": "function"
    },
    {
      "inputs": [
        {
          "internalType": "uint256",
          "name": "",
          "type": "uint256"
        }
      ],
      "name": "requests",
      "outputs": [
        {
          "internalType": "address",
          "name": "recipient",
          "type": "address"
        },
        {
          "internalType": "string",
          "name": "description",
          "type": "string"
        },
        {
          "internalType": "uint256",
          "name": "value",
          "type": "uint256"
        },
        {
          "internalType": "uint256",
          "name": "numVoters",
          "type": "uint256"
        },
        {
          "internalType": "bool",
          "name": "completed",
          "type": "bool"
        }
      ],
      "stateMutability": "view",
      "type": "function"
    },
    {
      "inputs": [
        {
          "internalType": "uint256",
          "name": "_value",
          "type": "uint256"
        }
      ],
      "name": "setMinimumDonation",
      "outputs": [],
      "stateMutability": "nonpayable",
      "type": "function"
    },
    {
      "inputs": [],
      "name": "stage",
      "outputs": [
        {
          "internalType": "enum CherrioProject.Stages",
          "name": "",
          "type": "uint8"
        }
      ],
      "stateMutability": "view",
      "type": "function"
    },
    {
      "inputs": [],
      "name": "startedAt",
      "outputs": [
        {
          "internalType": "uint256",
          "name": "",
          "type": "uint256"
        }
      ],
      "stateMutability": "view",
      "type": "function"
    },
    {
      "inputs": [
        {
          "internalType": "uint256",
          "name": "_index",
          "type": "uint256"
        }
      ],
      "name": "voteForRequest",
      "outputs": [],
      "stateMutability": "nonpayable",
      "type": "function"
    },
    {
      "stateMutability": "payable",
      "type": "receive"
    }
  ],
  "bytecode": "0x60806040523480156200001157600080fd5b5060405162002b1638038062002b1683398181016040528101906200003791906200022d565b336000806101000a81548173ffffffffffffffffffffffffffffffffffffffff021916908373ffffffffffffffffffffffffffffffffffffffff16021790555060008054906101000a900473ffffffffffffffffffffffffffffffffffffffff1673ffffffffffffffffffffffffffffffffffffffff16600073ffffffffffffffffffffffffffffffffffffffff167f342827c97908e5e2f71151c08502a66d44b6f758e3ac2f1de95f02eb95f0a73560405160405180910390a381600881905550806004819055506000600d60006101000a81548160ff0219169083600381111562000129576200012862000274565b5b02179055506509184e72a0006003819055507378b881eb26db03b49239db7cd7b2c92f95d9d63c600160006101000a81548173ffffffffffffffffffffffffffffffffffffffff021916908373ffffffffffffffffffffffffffffffffffffffff160217905550733e8cf19753673e86a8aed6236638f7e37acf6451600260006101000a81548173ffffffffffffffffffffffffffffffffffffffff021916908373ffffffffffffffffffffffffffffffffffffffff1602179055505050620002a3565b600080fd5b6000819050919050565b6200020781620001f2565b81146200021357600080fd5b50565b6000815190506200022781620001fc565b92915050565b60008060408385031215620002475762000246620001ed565b5b6000620002578582860162000216565b92505060206200026a8582860162000216565b9150509250929050565b7f4e487b7100000000000000000000000000000000000000000000000000000000600052602160045260246000fd5b61286380620002b36000396000f3fe6080604052600436106101bb5760003560e01c806396d8f4f3116100ec578063c59ee1dc1161008a578063d01ca19211610064578063d01ca19214610604578063ed88c68e1461062d578063f21f537d14610637578063f851a44014610662576101ca565b8063c59ee1dc14610573578063c63172471461059e578063cc6cb19a146105c7576101ca565b8063a6f9dae1116100c6578063a6f9dae1146104c7578063b2d5ae44146104f0578063c040e6b814610507578063c58343ef14610532576101ca565b806396d8f4f3146104345780639ab24eb01461045f5780639fb42b1f1461049c576101ca565b8063401938831161015957806381d12c581161013357806381d12c581461036e5780638813ce12146103af578063893d20e8146103de5780639034b42714610409576101ca565b806340193883146102ef5780635e9a18491461031a578063700127ef14610345576101ca565b806329cb924d1161019557806329cb924d1461023c57806329dcb0cf146102675780633bc5de30146102925780633d6a71e4146102c4576101ca565b8063066eec6f146101cf5780630f15f4c0146101fa5780630fb5a6b414610211576101ca565b366101ca576101c861068d565b005b600080fd5b3480156101db57600080fd5b506101e46108fb565b6040516101f191906119d1565b60405180910390f35b34801561020657600080fd5b5061020f610921565b005b34801561021d57600080fd5b50610226610aac565b6040516102339190611a05565b60405180910390f35b34801561024857600080fd5b50610251610ab2565b60405161025e9190611a05565b60405180910390f35b34801561027357600080fd5b5061027c610aba565b6040516102899190611a05565b60405180910390f35b34801561029e57600080fd5b506102a7610ac0565b6040516102bb989796959493929190611a97565b60405180910390f35b3480156102d057600080fd5b506102d9610b10565b6040516102e69190611a05565b60405180910390f35b3480156102fb57600080fd5b50610304610b16565b6040516103119190611a05565b60405180910390f35b34801561032657600080fd5b5061032f610b1c565b60405161033c9190611a05565b60405180910390f35b34801561035157600080fd5b5061036c60048036038101906103679190611b55565b610b22565b005b34801561037a57600080fd5b5061039560048036038101906103909190611b55565b610cbd565b6040516103a6959493929190611c2d565b60405180910390f35b3480156103bb57600080fd5b506103c4610da8565b6040516103d5959493929190611fcd565b60405180910390f35b3480156103ea57600080fd5b506103f3611130565b60405161040091906119d1565b60405180910390f35b34801561041557600080fd5b5061041e611159565b60405161042b9190611a05565b60405180910390f35b34801561044057600080fd5b5061044961115f565b6040516104569190611a05565b60405180910390f35b34801561046b57600080fd5b506104866004803603810190610481919061206f565b611165565b604051610493919061209c565b60405180910390f35b3480156104a857600080fd5b506104b1611266565b6040516104be9190611a05565b60405180910390f35b3480156104d357600080fd5b506104ee60048036038101906104e9919061206f565b61126c565b005b3480156104fc57600080fd5b506105056113b7565b005b34801561051357600080fd5b5061051c6114ef565b60405161052991906120be565b60405180910390f35b34801561053e57600080fd5b5061055960048036038101906105549190611b55565b611502565b60405161056a9594939291906120d9565b60405180910390f35b34801561057f57600080fd5b50610588611648565b6040516105959190611a05565b60405180910390f35b3480156105aa57600080fd5b506105c560048036038101906105c09190611b55565b61164e565b005b3480156105d357600080fd5b506105ee60048036038101906105e9919061206f565b6116c5565b6040516105fb9190611a05565b60405180910390f35b34801561061057600080fd5b5061062b60048036038101906106269190612268565b6116dd565b005b61063561068d565b005b34801561064357600080fd5b5061064c61185e565b6040516106599190611a05565b60405180910390f35b34801561066e57600080fd5b50610677611864565b60405161068491906119d1565b60405180910390f35b60018060038111156106a2576106a1611a20565b5b600d60009054906101000a900460ff1660038111156106c4576106c3611a20565b5b146106ce57600080fd5b6003543410156106dd57600080fd5b6006544211156106ec57600080fd5b6000600e60003373ffffffffffffffffffffffffffffffffffffffff1673ffffffffffffffffffffffffffffffffffffffff168152602001908152602001600020540361074c57600b600081548092919061074690612306565b91905055505b34600e60003373ffffffffffffffffffffffffffffffffffffffff1673ffffffffffffffffffffffffffffffffffffffff168152602001908152602001600020600082825461079b919061234e565b9250508190555034600960008282546107b4919061234e565b92505081905550600a60008154809291906107ce90612306565b91905055507f5d8bc849764969eb1bcc6d0a2f55999d0167c1ccec240a4f39cf664ca9c4148e3334604051610804929190612382565b60405180910390a1600854600954106108f8576002600d60006101000a81548160ff0219169083600381111561083d5761083c611a20565b5b021790555042600781905550600260009054906101000a900473ffffffffffffffffffffffffffffffffffffffff1673ffffffffffffffffffffffffffffffffffffffff16631149a81a6040518163ffffffff1660e01b8152600401600060405180830381600087803b1580156108b357600080fd5b505af11580156108c7573d6000803e3d6000fd5b505050507fb9463297fc1a772a9ee3468d06837a7c7421578c79ea7f08e0abf74b373ceb8960405160405180910390a15b50565b600260009054906101000a900473ffffffffffffffffffffffffffffffffffffffff1681565b600080600381111561093657610935611a20565b5b600d60009054906101000a900460ff16600381111561095857610957611a20565b5b1461096257600080fd5b33600160009054906101000a900473ffffffffffffffffffffffffffffffffffffffff1673ffffffffffffffffffffffffffffffffffffffff168173ffffffffffffffffffffffffffffffffffffffff161480610a0c5750600260009054906101000a900473ffffffffffffffffffffffffffffffffffffffff1673ffffffffffffffffffffffffffffffffffffffff168173ffffffffffffffffffffffffffffffffffffffff16145b610a1557600080fd5b6001600d60006101000a81548160ff02191690836003811115610a3b57610a3a611a20565b5b02179055504260058190555062015180600454610a5891906123ab565b600554610a65919061234e565b6006819055507fd8f5696084a3b4d96924b5a9b4b22cb80f2980b30fe04b79ec8c9a8981bbb9cd600554600654604051610aa09291906123ed565b60405180910390a15050565b60045481565b600042905090565b60065481565b600080600080600080600080610ad4611130565b600d60009054906101000a900460ff16600354600554600654600754600954600a54975097509750975097509750975097509091929394959697565b60075481565b60085481565b600a5481565b6000600f600083815260200190815260200160002090506000600e60003373ffffffffffffffffffffffffffffffffffffffff1673ffffffffffffffffffffffffffffffffffffffff1681526020019081526020016000205411610b8557600080fd5b600015158160050160003373ffffffffffffffffffffffffffffffffffffffff1673ffffffffffffffffffffffffffffffffffffffff16815260200190815260200160002060009054906101000a900460ff16151514610be457600080fd5b60018160050160003373ffffffffffffffffffffffffffffffffffffffff1673ffffffffffffffffffffffffffffffffffffffff16815260200190815260200160002060006101000a81548160ff021916908315150217905550806003016000815480929190610c5390612306565b91905055506002600b54610c679190612445565b81600301541115610c7c57610c7b8261188a565b5b7f27e3b1a944add94f68b4ffdfd6d1d111973fb90fb71b79620749e66a7279e9d1828260030154604051610cb19291906123ed565b60405180910390a15050565b600f6020528060005260406000206000915090508060000160009054906101000a900473ffffffffffffffffffffffffffffffffffffffff1690806001018054610d06906124a5565b80601f0160208091040260200160405190810160405280929190818152602001828054610d32906124a5565b8015610d7f5780601f10610d5457610100808354040283529160200191610d7f565b820191906000526020600020905b815481529060010190602001808311610d6257829003601f168201915b5050505050908060020154908060030154908060040160009054906101000a900460ff16905085565b60608060608060606000600c5467ffffffffffffffff811115610dce57610dcd61213d565b5b604051908082528060200260200182016040528015610e0157816020015b6060815260200190600190039081610dec5790505b5090506000600c5467ffffffffffffffff811115610e2257610e2161213d565b5b604051908082528060200260200182016040528015610e505781602001602082028036833780820191505090505b5090506000600c5467ffffffffffffffff811115610e7157610e7061213d565b5b604051908082528060200260200182016040528015610e9f5781602001602082028036833780820191505090505b5090506000600c5467ffffffffffffffff811115610ec057610ebf61213d565b5b604051908082528060200260200182016040528015610eee5781602001602082028036833780820191505090505b5090506000600c5467ffffffffffffffff811115610f0f57610f0e61213d565b5b604051908082528060200260200182016040528015610f3d5781602001602082028036833780820191505090505b50905060005b600c54811015611114576000600f60008381526020019081526020016000209050806001018054610f73906124a5565b80601f0160208091040260200160405190810160405280929190818152602001828054610f9f906124a5565b8015610fec5780601f10610fc157610100808354040283529160200191610fec565b820191906000526020600020905b815481529060010190602001808311610fcf57829003601f168201915b5050505050878381518110611004576110036124d6565b5b60200260200101819052508060020154868381518110611027576110266124d6565b5b6020026020010181815250508060000160009054906101000a900473ffffffffffffffffffffffffffffffffffffffff1685838151811061106b5761106a6124d6565b5b602002602001019073ffffffffffffffffffffffffffffffffffffffff16908173ffffffffffffffffffffffffffffffffffffffff16815250508060040160009054906101000a900460ff168483815181106110ca576110c96124d6565b5b60200260200101901515908115158152505080600301548383815181106110f4576110f36124d6565b5b60200260200101818152505050808061110c90612306565b915050610f43565b5084848484849950995099509950995050505050509091929394565b60008060009054906101000a900473ffffffffffffffffffffffffffffffffffffffff16905090565b600b5481565b60035481565b60606000600c5467ffffffffffffffff8111156111855761118461213d565b5b6040519080825280602002602001820160405280156111b35781602001602082028036833780820191505090505b50905060005b600c5481101561125c57600f600082815260200190815260200160002060050160008573ffffffffffffffffffffffffffffffffffffffff1673ffffffffffffffffffffffffffffffffffffffff16815260200190815260200160002060009054906101000a900460ff16828281518110611237576112366124d6565b5b602002602001019015159081151581525050808061125490612306565b9150506111b9565b5080915050919050565b600c5481565b60008054906101000a900473ffffffffffffffffffffffffffffffffffffffff1673ffffffffffffffffffffffffffffffffffffffff163373ffffffffffffffffffffffffffffffffffffffff16146112fa576040517f08c379a00000000000000000000000000000000000000000000000000000000081526004016112f190612551565b60405180910390fd5b8073ffffffffffffffffffffffffffffffffffffffff1660008054906101000a900473ffffffffffffffffffffffffffffffffffffffff1673ffffffffffffffffffffffffffffffffffffffff167f342827c97908e5e2f71151c08502a66d44b6f758e3ac2f1de95f02eb95f0a73560405160405180910390a3806000806101000a81548173ffffffffffffffffffffffffffffffffffffffff021916908373ffffffffffffffffffffffffffffffffffffffff16021790555050565b60075442116113c557600080fd5b60085460095411156113d657600080fd5b6000600e60003373ffffffffffffffffffffffffffffffffffffffff1673ffffffffffffffffffffffffffffffffffffffff168152602001908152602001600020541161142257600080fd5b3373ffffffffffffffffffffffffffffffffffffffff166108fc600e60003373ffffffffffffffffffffffffffffffffffffffff1673ffffffffffffffffffffffffffffffffffffffff168152602001908152602001600020549081150290604051600060405180830381858888f193505050501580156114a7573d6000803e3d6000fd5b506000600e60003373ffffffffffffffffffffffffffffffffffffffff1673ffffffffffffffffffffffffffffffffffffffff16815260200190815260200160002081905550565b600d60009054906101000a900460ff1681565b6060600080600080600f6000878152602001908152602001600020600101600f600088815260200190815260200160002060020154600f600089815260200190815260200160002060000160009054906101000a900473ffffffffffffffffffffffffffffffffffffffff16600f60008a815260200190815260200160002060040160009054906101000a900460ff16600f60008b8152602001908152602001600020600301548480546115b5906124a5565b80601f01602080910402602001604051908101604052809291908181526020018280546115e1906124a5565b801561162e5780601f106116035761010080835404028352916020019161162e565b820191906000526020600020905b81548152906001019060200180831161161157829003601f168201915b505050505094509450945094509450945091939590929450565b60095481565b600160009054906101000a900473ffffffffffffffffffffffffffffffffffffffff1673ffffffffffffffffffffffffffffffffffffffff163373ffffffffffffffffffffffffffffffffffffffff16146116a857600080fd5b670de0b6b3a7640000816116bc91906123ab565b60038190555050565b600e6020528060005260406000206000915090505481565b60008054906101000a900473ffffffffffffffffffffffffffffffffffffffff1673ffffffffffffffffffffffffffffffffffffffff163373ffffffffffffffffffffffffffffffffffffffff161461176b576040517f08c379a000000000000000000000000000000000000000000000000000000000815260040161176290612551565b60405180910390fd5b6000600f6000600c600081548092919061178490612306565b9190505581526020019081526020016000209050838160010190816117a9919061271d565b50828160000160006101000a81548173ffffffffffffffffffffffffffffffffffffffff021916908373ffffffffffffffffffffffffffffffffffffffff1602179055508181600201819055506000816003018190555060008160040160006101000a81548160ff0219169083151502179055507fdf12aa56e2bc1c4efe140ef292f3cc2fa67d16660906126a5fb73205419c70cc848484604051611850939291906127ef565b60405180910390a150505050565b60055481565b600160009054906101000a900473ffffffffffffffffffffffffffffffffffffffff1681565b6000600f60008381526020019081526020016000209050600015158160040160009054906101000a900460ff161515146118c357600080fd5b8060000160009054906101000a900473ffffffffffffffffffffffffffffffffffffffff1673ffffffffffffffffffffffffffffffffffffffff166108fc82600201549081150290604051600060405180830381858888f19350505050158015611931573d6000803e3d6000fd5b5060018160040160006101000a81548160ff0219169083151502179055507f0aa3645b8b35728ed15c92cd744063b1558a7b10bc77e492eab841d11e54df558282600201546040516119849291906123ed565b60405180910390a15050565b600073ffffffffffffffffffffffffffffffffffffffff82169050919050565b60006119bb82611990565b9050919050565b6119cb816119b0565b82525050565b60006020820190506119e660008301846119c2565b92915050565b6000819050919050565b6119ff816119ec565b82525050565b6000602082019050611a1a60008301846119f6565b92915050565b7f4e487b7100000000000000000000000000000000000000000000000000000000600052602160045260246000fd5b60048110611a6057611a5f611a20565b5b50565b6000819050611a7182611a4f565b919050565b6000611a8182611a63565b9050919050565b611a9181611a76565b82525050565b600061010082019050611aad600083018b6119c2565b611aba602083018a611a88565b611ac760408301896119f6565b611ad460608301886119f6565b611ae160808301876119f6565b611aee60a08301866119f6565b611afb60c08301856119f6565b611b0860e08301846119f6565b9998505050505050505050565b6000604051905090565b600080fd5b600080fd5b611b32816119ec565b8114611b3d57600080fd5b50565b600081359050611b4f81611b29565b92915050565b600060208284031215611b6b57611b6a611b1f565b5b6000611b7984828501611b40565b91505092915050565b600081519050919050565b600082825260208201905092915050565b60005b83811015611bbc578082015181840152602081019050611ba1565b60008484015250505050565b6000601f19601f8301169050919050565b6000611be482611b82565b611bee8185611b8d565b9350611bfe818560208601611b9e565b611c0781611bc8565b840191505092915050565b60008115159050919050565b611c2781611c12565b82525050565b600060a082019050611c4260008301886119c2565b8181036020830152611c548187611bd9565b9050611c6360408301866119f6565b611c7060608301856119f6565b611c7d6080830184611c1e565b9695505050505050565b600081519050919050565b600082825260208201905092915050565b6000819050602082019050919050565b600082825260208201905092915050565b6000611ccf82611b82565b611cd98185611cb3565b9350611ce9818560208601611b9e565b611cf281611bc8565b840191505092915050565b6000611d098383611cc4565b905092915050565b6000602082019050919050565b6000611d2982611c87565b611d338185611c92565b935083602082028501611d4585611ca3565b8060005b85811015611d815784840389528151611d628582611cfd565b9450611d6d83611d11565b925060208a01995050600181019050611d49565b50829750879550505050505092915050565b600081519050919050565b600082825260208201905092915050565b6000819050602082019050919050565b611dc8816119ec565b82525050565b6000611dda8383611dbf565b60208301905092915050565b6000602082019050919050565b6000611dfe82611d93565b611e088185611d9e565b9350611e1383611daf565b8060005b83811015611e44578151611e2b8882611dce565b9750611e3683611de6565b925050600181019050611e17565b5085935050505092915050565b600081519050919050565b600082825260208201905092915050565b6000819050602082019050919050565b611e86816119b0565b82525050565b6000611e988383611e7d565b60208301905092915050565b6000602082019050919050565b6000611ebc82611e51565b611ec68185611e5c565b9350611ed183611e6d565b8060005b83811015611f02578151611ee98882611e8c565b9750611ef483611ea4565b925050600181019050611ed5565b5085935050505092915050565b600081519050919050565b600082825260208201905092915050565b6000819050602082019050919050565b611f4481611c12565b82525050565b6000611f568383611f3b565b60208301905092915050565b6000602082019050919050565b6000611f7a82611f0f565b611f848185611f1a565b9350611f8f83611f2b565b8060005b83811015611fc0578151611fa78882611f4a565b9750611fb283611f62565b925050600181019050611f93565b5085935050505092915050565b600060a0820190508181036000830152611fe78188611d1e565b90508181036020830152611ffb8187611df3565b9050818103604083015261200f8186611eb1565b905081810360608301526120238185611f6f565b905081810360808301526120378184611df3565b90509695505050505050565b61204c816119b0565b811461205757600080fd5b50565b60008135905061206981612043565b92915050565b60006020828403121561208557612084611b1f565b5b60006120938482850161205a565b91505092915050565b600060208201905081810360008301526120b68184611f6f565b905092915050565b60006020820190506120d36000830184611a88565b92915050565b600060a08201905081810360008301526120f38188611bd9565b905061210260208301876119f6565b61210f60408301866119c2565b61211c6060830185611c1e565b61212960808301846119f6565b9695505050505050565b600080fd5b600080fd5b7f4e487b7100000000000000000000000000000000000000000000000000000000600052604160045260246000fd5b61217582611bc8565b810181811067ffffffffffffffff821117156121945761219361213d565b5b80604052505050565b60006121a7611b15565b90506121b3828261216c565b919050565b600067ffffffffffffffff8211156121d3576121d261213d565b5b6121dc82611bc8565b9050602081019050919050565b82818337600083830152505050565b600061220b612206846121b8565b61219d565b90508281526020810184848401111561222757612226612138565b5b6122328482856121e9565b509392505050565b600082601f83011261224f5761224e612133565b5b813561225f8482602086016121f8565b91505092915050565b60008060006060848603121561228157612280611b1f565b5b600084013567ffffffffffffffff81111561229f5761229e611b24565b5b6122ab8682870161223a565b93505060206122bc8682870161205a565b92505060406122cd86828701611b40565b9150509250925092565b7f4e487b7100000000000000000000000000000000000000000000000000000000600052601160045260246000fd5b6000612311826119ec565b91507fffffffffffffffffffffffffffffffffffffffffffffffffffffffffffffffff8203612343576123426122d7565b5b600182019050919050565b6000612359826119ec565b9150612364836119ec565b925082820190508082111561237c5761237b6122d7565b5b92915050565b600060408201905061239760008301856119c2565b6123a460208301846119f6565b9392505050565b60006123b6826119ec565b91506123c1836119ec565b92508282026123cf816119ec565b915082820484148315176123e6576123e56122d7565b5b5092915050565b600060408201905061240260008301856119f6565b61240f60208301846119f6565b9392505050565b7f4e487b7100000000000000000000000000000000000000000000000000000000600052601260045260246000fd5b6000612450826119ec565b915061245b836119ec565b92508261246b5761246a612416565b5b828204905092915050565b7f4e487b7100000000000000000000000000000000000000000000000000000000600052602260045260246000fd5b600060028204905060018216806124bd57607f821691505b6020821081036124d0576124cf612476565b5b50919050565b7f4e487b7100000000000000000000000000000000000000000000000000000000600052603260045260246000fd5b7f43616c6c6572206973206e6f74206f776e657200000000000000000000000000600082015250565b600061253b601383611b8d565b915061254682612505565b602082019050919050565b6000602082019050818103600083015261256a8161252e565b9050919050565b60008190508160005260206000209050919050565b60006020601f8301049050919050565b600082821b905092915050565b6000600883026125d37fffffffffffffffffffffffffffffffffffffffffffffffffffffffffffffffff82612596565b6125dd8683612596565b95508019841693508086168417925050509392505050565b6000819050919050565b600061261a612615612610846119ec565b6125f5565b6119ec565b9050919050565b6000819050919050565b612634836125ff565b61264861264082612621565b8484546125a3565b825550505050565b600090565b61265d612650565b61266881848461262b565b505050565b5b8181101561268c57612681600082612655565b60018101905061266e565b5050565b601f8211156126d1576126a281612571565b6126ab84612586565b810160208510156126ba578190505b6126ce6126c685612586565b83018261266d565b50505b505050565b600082821c905092915050565b60006126f4600019846008026126d6565b1980831691505092915050565b600061270d83836126e3565b9150826002028217905092915050565b61272682611b82565b67ffffffffffffffff81111561273f5761273e61213d565b5b61274982546124a5565b612754828285612690565b600060209050601f8311600181146127875760008415612775578287015190505b61277f8582612701565b8655506127e7565b601f19841661279586612571565b60005b828110156127bd57848901518255600182019150602085019450602081019050612798565b868310156127da57848901516127d6601f8916826126e3565b8355505b6001600288020188555050505b505050505050565b600060608201905081810360008301526128098186611bd9565b905061281860208301856119c2565b61282560408301846119f6565b94935050505056fea26469706673582212200fa75eae1ca7b7d7e1cf25cc95e768a5446a390c80f943cdb4cbcb9a0412afd864736f6c63430008110033",
  "linkReferences": {},
  "deployedLinkReferences": {}
}