{
  "_format": "hh-sol-artifact-1",
  "contractName": "CherrioProject",
  "sourceName": "src/web3/contracts/CherrioProject.sol",
  "abi": [
    {
      "inputs": [
        {
          "internalType": "uint256",
          "name": "_duration",
          "type": "uint256"
        },
        {
          "internalType": "uint256",
          "name": "_goal",
          "type": "uint256"
        }
      ],
      "stateMutability": "nonpayable",
      "type": "constructor"
    },
    {
      "anonymous": false,
      "inputs": [
        {
          "indexed": false,
          "internalType": "string",
          "name": "description",
          "type": "string"
        },
        {
          "indexed": false,
          "internalType": "address",
          "name": "recipient",
          "type": "address"
        },
        {
          "indexed": false,
          "internalType": "uint256",
          "name": "value",
          "type": "uint256"
        }
      ],
      "name": "CreateSpendingRequest",
      "type": "event"
    },
    {
      "anonymous": false,
      "inputs": [
        {
          "indexed": false,
          "internalType": "address",
          "name": "donor",
          "type": "address"
        },
        {
          "indexed": false,
          "internalType": "uint256",
          "name": "value",
          "type": "uint256"
        }
      ],
      "name": "Donation",
      "type": "event"
    },
    {
      "anonymous": false,
      "inputs": [
        {
          "indexed": false,
          "internalType": "uint256",
          "name": "index",
          "type": "uint256"
        },
        {
          "indexed": false,
          "internalType": "uint256",
          "name": "value",
          "type": "uint256"
        }
      ],
      "name": "MakePayment",
      "type": "event"
    },
    {
      "anonymous": false,
      "inputs": [
        {
          "indexed": true,
          "internalType": "address",
          "name": "oldOwner",
          "type": "address"
        },
        {
          "indexed": true,
          "internalType": "address",
          "name": "newOwner",
          "type": "address"
        }
      ],
      "name": "OwnerSet",
      "type": "event"
    },
    {
      "anonymous": false,
      "inputs": [
        {
          "indexed": false,
          "internalType": "uint256",
          "name": "startedAt",
          "type": "uint256"
        },
        {
          "indexed": false,
          "internalType": "uint256",
          "name": "deadline",
          "type": "uint256"
        }
      ],
      "name": "ProjectActivated",
      "type": "event"
    },
    {
      "anonymous": false,
      "inputs": [],
      "name": "ProjectEnded",
      "type": "event"
    },
    {
      "anonymous": false,
      "inputs": [
        {
          "indexed": false,
          "internalType": "uint256",
          "name": "index",
          "type": "uint256"
        },
        {
          "indexed": false,
          "internalType": "uint256",
          "name": "numberOfVoters",
          "type": "uint256"
        }
      ],
      "name": "VoteForRequest",
      "type": "event"
    },
    {
      "inputs": [],
      "name": "activate",
      "outputs": [],
      "stateMutability": "nonpayable",
      "type": "function"
    },
    {
      "inputs": [],
      "name": "admin",
      "outputs": [
        {
          "internalType": "address",
          "name": "",
          "type": "address"
        }
      ],
      "stateMutability": "view",
      "type": "function"
    },
    {
      "inputs": [
        {
          "internalType": "address",
          "name": "newOwner",
          "type": "address"
        }
      ],
      "name": "changeOwner",
      "outputs": [],
      "stateMutability": "nonpayable",
      "type": "function"
    },
    {
      "inputs": [],
      "name": "cherrioProjectActivator",
      "outputs": [
        {
          "internalType": "address",
          "name": "",
          "type": "address"
        }
      ],
      "stateMutability": "view",
      "type": "function"
    },
    {
      "inputs": [
        {
          "internalType": "string",
          "name": "_description",
          "type": "string"
        },
        {
          "internalType": "address",
          "name": "_recipient",
          "type": "address"
        },
        {
          "internalType": "uint256",
          "name": "_value",
          "type": "uint256"
        }
      ],
      "name": "createSpendingRequest",
      "outputs": [],
      "stateMutability": "nonpayable",
      "type": "function"
    },
    {
      "inputs": [],
      "name": "deadline",
      "outputs": [
        {
          "internalType": "uint256",
          "name": "",
          "type": "uint256"
        }
      ],
      "stateMutability": "view",
      "type": "function"
    },
    {
      "inputs": [],
      "name": "donate",
      "outputs": [],
      "stateMutability": "payable",
      "type": "function"
    },
    {
      "inputs": [
        {
          "internalType": "address",
          "name": "",
          "type": "address"
        }
      ],
      "name": "donations",
      "outputs": [
        {
          "internalType": "uint256",
          "name": "",
          "type": "uint256"
        }
      ],
      "stateMutability": "view",
      "type": "function"
    },
    {
      "inputs": [],
      "name": "duration",
      "outputs": [
        {
          "internalType": "uint256",
          "name": "",
          "type": "uint256"
        }
      ],
      "stateMutability": "view",
      "type": "function"
    },
    {
      "inputs": [],
      "name": "endedAt",
      "outputs": [
        {
          "internalType": "uint256",
          "name": "",
          "type": "uint256"
        }
      ],
      "stateMutability": "view",
      "type": "function"
    },
    {
      "inputs": [],
      "name": "getCurrentTime",
      "outputs": [
        {
          "internalType": "uint256",
          "name": "",
          "type": "uint256"
        }
      ],
      "stateMutability": "view",
      "type": "function"
    },
    {
      "inputs": [],
      "name": "getOwner",
      "outputs": [
        {
          "internalType": "address",
          "name": "",
          "type": "address"
        }
      ],
      "stateMutability": "view",
      "type": "function"
    },
    {
      "inputs": [],
      "name": "getRefund",
      "outputs": [],
      "stateMutability": "nonpayable",
      "type": "function"
    },
    {
      "inputs": [
        {
          "internalType": "uint256",
          "name": "index",
          "type": "uint256"
        }
      ],
      "name": "getRequest",
      "outputs": [
        {
          "internalType": "string",
          "name": "description",
          "type": "string"
        },
        {
          "internalType": "uint256",
          "name": "amount",
          "type": "uint256"
        },
        {
          "internalType": "address",
          "name": "recipient",
          "type": "address"
        },
        {
          "internalType": "bool",
          "name": "completed",
          "type": "bool"
        },
        {
          "internalType": "uint256",
          "name": "numberOfVoters",
          "type": "uint256"
        }
      ],
      "stateMutability": "view",
      "type": "function"
    },
    {
      "inputs": [],
      "name": "getRequests",
      "outputs": [
        {
          "internalType": "string[]",
          "name": "descriptions",
          "type": "string[]"
        },
        {
          "internalType": "uint256[]",
          "name": "amounts",
          "type": "uint256[]"
        },
        {
          "internalType": "address[]",
          "name": "recipients",
          "type": "address[]"
        },
        {
          "internalType": "bool[]",
          "name": "completed",
          "type": "bool[]"
        },
        {
          "internalType": "uint256[]",
          "name": "numberOfVoters",
          "type": "uint256[]"
        }
      ],
      "stateMutability": "view",
      "type": "function"
    },
    {
      "inputs": [],
      "name": "goal",
      "outputs": [
        {
          "internalType": "uint256",
          "name": "",
          "type": "uint256"
        }
      ],
      "stateMutability": "view",
      "type": "function"
    },
    {
      "inputs": [
        {
          "internalType": "uint256",
          "name": "index",
          "type": "uint256"
        }
      ],
      "name": "makePayment",
      "outputs": [],
      "stateMutability": "nonpayable",
      "type": "function"
    },
    {
      "inputs": [],
      "name": "minimumDonation",
      "outputs": [
        {
          "internalType": "uint256",
          "name": "",
          "type": "uint256"
        }
      ],
      "stateMutability": "view",
      "type": "function"
    },
    {
      "inputs": [],
      "name": "numRequests",
      "outputs": [
        {
          "internalType": "uint256",
          "name": "",
          "type": "uint256"
        }
      ],
      "stateMutability": "view",
      "type": "function"
    },
    {
      "inputs": [],
      "name": "raisedAmount",
      "outputs": [
        {
          "internalType": "uint256",
          "name": "",
          "type": "uint256"
        }
      ],
      "stateMutability": "view",
      "type": "function"
    },
    {
      "inputs": [
        {
          "internalType": "uint256",
          "name": "",
          "type": "uint256"
        }
      ],
      "name": "requests",
      "outputs": [
        {
          "internalType": "string",
          "name": "description",
          "type": "string"
        },
        {
          "internalType": "uint256",
          "name": "value",
          "type": "uint256"
        },
        {
          "internalType": "address",
          "name": "recipient",
          "type": "address"
        },
        {
          "internalType": "bool",
          "name": "completed",
          "type": "bool"
        },
        {
          "internalType": "uint256",
          "name": "numberOfVoters",
          "type": "uint256"
        }
      ],
      "stateMutability": "view",
      "type": "function"
    },
    {
      "inputs": [
        {
          "internalType": "uint256",
          "name": "_value",
          "type": "uint256"
        }
      ],
      "name": "setMinimumDonation",
      "outputs": [],
      "stateMutability": "nonpayable",
      "type": "function"
    },
    {
      "inputs": [],
      "name": "stage",
      "outputs": [
        {
          "internalType": "enum CherrioProject.Stages",
          "name": "",
          "type": "uint8"
        }
      ],
      "stateMutability": "view",
      "type": "function"
    },
    {
      "inputs": [],
      "name": "startedAt",
      "outputs": [
        {
          "internalType": "uint256",
          "name": "",
          "type": "uint256"
        }
      ],
      "stateMutability": "view",
      "type": "function"
    },
    {
      "inputs": [],
      "name": "totalDonations",
      "outputs": [
        {
          "internalType": "uint256",
          "name": "",
          "type": "uint256"
        }
      ],
      "stateMutability": "view",
      "type": "function"
    },
    {
      "inputs": [],
      "name": "totalDonors",
      "outputs": [
        {
          "internalType": "uint256",
          "name": "",
          "type": "uint256"
        }
      ],
      "stateMutability": "view",
      "type": "function"
    },
    {
      "inputs": [
        {
          "internalType": "uint256",
          "name": "index",
          "type": "uint256"
        }
      ],
      "name": "voteForRequest",
      "outputs": [],
      "stateMutability": "nonpayable",
      "type": "function"
    },
    {
      "stateMutability": "payable",
      "type": "receive"
    }
  ],
  "bytecode": "0x60806040523480156200001157600080fd5b506040516200287d3803806200287d83398181016040528101906200003791906200022d565b336000806101000a81548173ffffffffffffffffffffffffffffffffffffffff021916908373ffffffffffffffffffffffffffffffffffffffff16021790555060008054906101000a900473ffffffffffffffffffffffffffffffffffffffff1673ffffffffffffffffffffffffffffffffffffffff16600073ffffffffffffffffffffffffffffffffffffffff167f342827c97908e5e2f71151c08502a66d44b6f758e3ac2f1de95f02eb95f0a73560405160405180910390a381600b81905550806007819055506000600c60006101000a81548160ff0219169083600381111562000129576200012862000274565b5b02179055506509184e72a0006003819055507378b881eb26db03b49239db7cd7b2c92f95d9d63c600160006101000a81548173ffffffffffffffffffffffffffffffffffffffff021916908373ffffffffffffffffffffffffffffffffffffffff160217905550733529b75b11a68276418bf4daaeb7f6add5852798600260006101000a81548173ffffffffffffffffffffffffffffffffffffffff021916908373ffffffffffffffffffffffffffffffffffffffff1602179055505050620002a3565b600080fd5b6000819050919050565b6200020781620001f2565b81146200021357600080fd5b50565b6000815190506200022781620001fc565b92915050565b60008060408385031215620002475762000246620001ed565b5b6000620002578582860162000216565b92505060206200026a8582860162000216565b9150509250929050565b7f4e487b7100000000000000000000000000000000000000000000000000000000600052602160045260246000fd5b6125ca80620002b36000396000f3fe6080604052600436106101a05760003560e01c806396d8f4f3116100ec578063c63172471161008a578063de2ed89311610064578063de2ed893146105a1578063ed88c68e146105cc578063f21f537d146105d6578063f851a44014610601576101af565b8063c631724714610512578063cc6cb19a1461053b578063d01ca19214610578576101af565b8063b2d5ae44116100c6578063b2d5ae4414610464578063c040e6b81461047b578063c58343ef146104a6578063c59ee1dc146104e7576101af565b806396d8f4f3146103e55780639fb42b1f14610410578063a6f9dae11461043b576101af565b80633d6a71e411610159578063700127ef11610133578063700127ef1461032157806381d12c581461034a5780638813ce121461038b578063893d20e8146103ba576101af565b80633d6a71e4146102a257806340193883146102cd5780635114cb52146102f8576101af565b8063066eec6f146101b45780630f15f4c0146101df5780630fb5a6b4146101f657806325c302e41461022157806329cb924d1461024c57806329dcb0cf14610277576101af565b366101af576101ad61062c565b005b600080fd5b3480156101c057600080fd5b506101c961089a565b6040516101d69190611832565b60405180910390f35b3480156101eb57600080fd5b506101f46108c0565b005b34801561020257600080fd5b5061020b610a4b565b6040516102189190611866565b60405180910390f35b34801561022d57600080fd5b50610236610a51565b6040516102439190611866565b60405180910390f35b34801561025857600080fd5b50610261610a57565b60405161026e9190611866565b60405180910390f35b34801561028357600080fd5b5061028c610a5f565b6040516102999190611866565b60405180910390f35b3480156102ae57600080fd5b506102b7610a65565b6040516102c49190611866565b60405180910390f35b3480156102d957600080fd5b506102e2610a6b565b6040516102ef9190611866565b60405180910390f35b34801561030457600080fd5b5061031f600480360381019061031a91906118c1565b610a71565b005b34801561032d57600080fd5b50610348600480360381019061034391906118c1565b610bf0565b005b34801561035657600080fd5b50610371600480360381019061036c91906118c1565b610d67565b604051610382959493929190611999565b60405180910390f35b34801561039757600080fd5b506103a0610e52565b6040516103b1959493929190611d39565b60405180910390f35b3480156103c657600080fd5b506103cf6111da565b6040516103dc9190611832565b60405180910390f35b3480156103f157600080fd5b506103fa611203565b6040516104079190611866565b60405180910390f35b34801561041c57600080fd5b50610425611209565b6040516104329190611866565b60405180910390f35b34801561044757600080fd5b50610462600480360381019061045d9190611ddb565b61120f565b005b34801561047057600080fd5b5061047961135a565b005b34801561048757600080fd5b50610490611492565b60405161049d9190611e7f565b60405180910390f35b3480156104b257600080fd5b506104cd60048036038101906104c891906118c1565b6114a5565b6040516104de959493929190611999565b60405180910390f35b3480156104f357600080fd5b506104fc6115a9565b6040516105099190611866565b60405180910390f35b34801561051e57600080fd5b50610539600480360381019061053491906118c1565b6115af565b005b34801561054757600080fd5b50610562600480360381019061055d9190611ddb565b611626565b60405161056f9190611866565b60405180910390f35b34801561058457600080fd5b5061059f600480360381019061059a9190611fcf565b61163e565b005b3480156105ad57600080fd5b506105b66117bf565b6040516105c39190611866565b60405180910390f35b6105d461062c565b005b3480156105e257600080fd5b506105eb6117c5565b6040516105f89190611866565b60405180910390f35b34801561060d57600080fd5b506106166117cb565b6040516106239190611832565b60405180910390f35b600180600381111561064157610640611e08565b5b600c60009054906101000a900460ff16600381111561066357610662611e08565b5b1461066d57600080fd5b60035434101561067c57600080fd5b60055442111561068b57600080fd5b6000600e60003373ffffffffffffffffffffffffffffffffffffffff1673ffffffffffffffffffffffffffffffffffffffff16815260200190815260200160002054036106eb57600a60008154809291906106e59061206d565b91905055505b34600e60003373ffffffffffffffffffffffffffffffffffffffff1673ffffffffffffffffffffffffffffffffffffffff168152602001908152602001600020600082825461073a91906120b5565b92505081905550346008600082825461075391906120b5565b925050819055506009600081548092919061076d9061206d565b91905055507f5d8bc849764969eb1bcc6d0a2f55999d0167c1ccec240a4f39cf664ca9c4148e33346040516107a39291906120e9565b60405180910390a160075460085410610897576002600c60006101000a81548160ff021916908360038111156107dc576107db611e08565b5b021790555042600681905550600260009054906101000a900473ffffffffffffffffffffffffffffffffffffffff1673ffffffffffffffffffffffffffffffffffffffff16631149a81a6040518163ffffffff1660e01b8152600401600060405180830381600087803b15801561085257600080fd5b505af1158015610866573d6000803e3d6000fd5b505050507fb9463297fc1a772a9ee3468d06837a7c7421578c79ea7f08e0abf74b373ceb8960405160405180910390a15b50565b600260009054906101000a900473ffffffffffffffffffffffffffffffffffffffff1681565b60008060038111156108d5576108d4611e08565b5b600c60009054906101000a900460ff1660038111156108f7576108f6611e08565b5b1461090157600080fd5b33600160009054906101000a900473ffffffffffffffffffffffffffffffffffffffff1673ffffffffffffffffffffffffffffffffffffffff168173ffffffffffffffffffffffffffffffffffffffff1614806109ab5750600260009054906101000a900473ffffffffffffffffffffffffffffffffffffffff1673ffffffffffffffffffffffffffffffffffffffff168173ffffffffffffffffffffffffffffffffffffffff16145b6109b457600080fd5b6001600c60006101000a81548160ff021916908360038111156109da576109d9611e08565b5b02179055504260048190555062015180600b546109f79190612112565b600454610a0491906120b5565b6005819055507fd8f5696084a3b4d96924b5a9b4b22cb80f2980b30fe04b79ec8c9a8981bbb9cd600454600554604051610a3f929190612154565b60405180910390a15050565b600b5481565b600a5481565b600042905090565b60055481565b60065481565b60075481565b600160009054906101000a900473ffffffffffffffffffffffffffffffffffffffff1673ffffffffffffffffffffffffffffffffffffffff163373ffffffffffffffffffffffffffffffffffffffff1614610acb57600080fd5b6000600f60008381526020019081526020016000209050600015158160020160149054906101000a900460ff16151514610b0457600080fd5b6002600a54610b1391906121ac565b81600301541015610b2357600080fd5b8060020160009054906101000a900473ffffffffffffffffffffffffffffffffffffffff1673ffffffffffffffffffffffffffffffffffffffff166108fc82600101549081150290604051600060405180830381858888f19350505050158015610b91573d6000803e3d6000fd5b5060018160020160146101000a81548160ff0219169083151502179055507f0aa3645b8b35728ed15c92cd744063b1558a7b10bc77e492eab841d11e54df55828260010154604051610be4929190612154565b60405180910390a15050565b6000600f600083815260200190815260200160002090506000600e60003373ffffffffffffffffffffffffffffffffffffffff1673ffffffffffffffffffffffffffffffffffffffff1681526020019081526020016000205411610c5357600080fd5b600015158160040160003373ffffffffffffffffffffffffffffffffffffffff1673ffffffffffffffffffffffffffffffffffffffff16815260200190815260200160002060009054906101000a900460ff16151514610cb257600080fd5b60018160040160003373ffffffffffffffffffffffffffffffffffffffff1673ffffffffffffffffffffffffffffffffffffffff16815260200190815260200160002060006101000a81548160ff021916908315150217905550806003016000815480929190610d219061206d565b91905055507f27e3b1a944add94f68b4ffdfd6d1d111973fb90fb71b79620749e66a7279e9d1828260030154604051610d5b929190612154565b60405180910390a15050565b600f602052806000526040600020600091509050806000018054610d8a9061220c565b80601f0160208091040260200160405190810160405280929190818152602001828054610db69061220c565b8015610e035780601f10610dd857610100808354040283529160200191610e03565b820191906000526020600020905b815481529060010190602001808311610de657829003601f168201915b5050505050908060010154908060020160009054906101000a900473ffffffffffffffffffffffffffffffffffffffff16908060020160149054906101000a900460ff16908060030154905085565b60608060608060606000600d5467ffffffffffffffff811115610e7857610e77611ea4565b5b604051908082528060200260200182016040528015610eab57816020015b6060815260200190600190039081610e965790505b5090506000600d5467ffffffffffffffff811115610ecc57610ecb611ea4565b5b604051908082528060200260200182016040528015610efa5781602001602082028036833780820191505090505b5090506000600d5467ffffffffffffffff811115610f1b57610f1a611ea4565b5b604051908082528060200260200182016040528015610f495781602001602082028036833780820191505090505b5090506000600d5467ffffffffffffffff811115610f6a57610f69611ea4565b5b604051908082528060200260200182016040528015610f985781602001602082028036833780820191505090505b5090506000600d5467ffffffffffffffff811115610fb957610fb8611ea4565b5b604051908082528060200260200182016040528015610fe75781602001602082028036833780820191505090505b50905060005b600d548110156111be576000600f6000838152602001908152602001600020905080600001805461101d9061220c565b80601f01602080910402602001604051908101604052809291908181526020018280546110499061220c565b80156110965780601f1061106b57610100808354040283529160200191611096565b820191906000526020600020905b81548152906001019060200180831161107957829003601f168201915b50505050508783815181106110ae576110ad61223d565b5b602002602001018190525080600101548683815181106110d1576110d061223d565b5b6020026020010181815250508060020160009054906101000a900473ffffffffffffffffffffffffffffffffffffffff168583815181106111155761111461223d565b5b602002602001019073ffffffffffffffffffffffffffffffffffffffff16908173ffffffffffffffffffffffffffffffffffffffff16815250508060020160149054906101000a900460ff168483815181106111745761117361223d565b5b602002602001019015159081151581525050806003015483838151811061119e5761119d61223d565b5b6020026020010181815250505080806111b69061206d565b915050610fed565b5084848484849950995099509950995050505050509091929394565b60008060009054906101000a900473ffffffffffffffffffffffffffffffffffffffff16905090565b60035481565b600d5481565b60008054906101000a900473ffffffffffffffffffffffffffffffffffffffff1673ffffffffffffffffffffffffffffffffffffffff163373ffffffffffffffffffffffffffffffffffffffff161461129d576040517f08c379a0000000000000000000000000000000000000000000000000000000008152600401611294906122b8565b60405180910390fd5b8073ffffffffffffffffffffffffffffffffffffffff1660008054906101000a900473ffffffffffffffffffffffffffffffffffffffff1673ffffffffffffffffffffffffffffffffffffffff167f342827c97908e5e2f71151c08502a66d44b6f758e3ac2f1de95f02eb95f0a73560405160405180910390a3806000806101000a81548173ffffffffffffffffffffffffffffffffffffffff021916908373ffffffffffffffffffffffffffffffffffffffff16021790555050565b600654421161136857600080fd5b600754600854111561137957600080fd5b6000600e60003373ffffffffffffffffffffffffffffffffffffffff1673ffffffffffffffffffffffffffffffffffffffff16815260200190815260200160002054116113c557600080fd5b3373ffffffffffffffffffffffffffffffffffffffff166108fc600e60003373ffffffffffffffffffffffffffffffffffffffff1673ffffffffffffffffffffffffffffffffffffffff168152602001908152602001600020549081150290604051600060405180830381858888f1935050505015801561144a573d6000803e3d6000fd5b506000600e60003373ffffffffffffffffffffffffffffffffffffffff1673ffffffffffffffffffffffffffffffffffffffff16815260200190815260200160002081905550565b600c60009054906101000a900460ff1681565b60606000806000806000600f600088815260200190815260200160002090508060000181600101548260020160009054906101000a900473ffffffffffffffffffffffffffffffffffffffff168360020160149054906101000a900460ff1684600301548480546115159061220c565b80601f01602080910402602001604051908101604052809291908181526020018280546115419061220c565b801561158e5780601f106115635761010080835404028352916020019161158e565b820191906000526020600020905b81548152906001019060200180831161157157829003601f168201915b50505050509450955095509550955095505091939590929450565b60085481565b600160009054906101000a900473ffffffffffffffffffffffffffffffffffffffff1673ffffffffffffffffffffffffffffffffffffffff163373ffffffffffffffffffffffffffffffffffffffff161461160957600080fd5b670de0b6b3a76400008161161d9190612112565b60038190555050565b600e6020528060005260406000206000915090505481565b60008054906101000a900473ffffffffffffffffffffffffffffffffffffffff1673ffffffffffffffffffffffffffffffffffffffff163373ffffffffffffffffffffffffffffffffffffffff16146116cc576040517f08c379a00000000000000000000000000000000000000000000000000000000081526004016116c3906122b8565b60405180910390fd5b6000600f6000600d60008154809291906116e59061206d565b91905055815260200190815260200160002090508381600001908161170a9190612484565b50828160020160006101000a81548173ffffffffffffffffffffffffffffffffffffffff021916908373ffffffffffffffffffffffffffffffffffffffff1602179055508181600101819055506000816003018190555060008160020160146101000a81548160ff0219169083151502179055507fdf12aa56e2bc1c4efe140ef292f3cc2fa67d16660906126a5fb73205419c70cc8484846040516117b193929190612556565b60405180910390a150505050565b60095481565b60045481565b600160009054906101000a900473ffffffffffffffffffffffffffffffffffffffff1681565b600073ffffffffffffffffffffffffffffffffffffffff82169050919050565b600061181c826117f1565b9050919050565b61182c81611811565b82525050565b60006020820190506118476000830184611823565b92915050565b6000819050919050565b6118608161184d565b82525050565b600060208201905061187b6000830184611857565b92915050565b6000604051905090565b600080fd5b600080fd5b61189e8161184d565b81146118a957600080fd5b50565b6000813590506118bb81611895565b92915050565b6000602082840312156118d7576118d661188b565b5b60006118e5848285016118ac565b91505092915050565b600081519050919050565b600082825260208201905092915050565b60005b8381101561192857808201518184015260208101905061190d565b60008484015250505050565b6000601f19601f8301169050919050565b6000611950826118ee565b61195a81856118f9565b935061196a81856020860161190a565b61197381611934565b840191505092915050565b60008115159050919050565b6119938161197e565b82525050565b600060a08201905081810360008301526119b38188611945565b90506119c26020830187611857565b6119cf6040830186611823565b6119dc606083018561198a565b6119e96080830184611857565b9695505050505050565b600081519050919050565b600082825260208201905092915050565b6000819050602082019050919050565b600082825260208201905092915050565b6000611a3b826118ee565b611a458185611a1f565b9350611a5581856020860161190a565b611a5e81611934565b840191505092915050565b6000611a758383611a30565b905092915050565b6000602082019050919050565b6000611a95826119f3565b611a9f81856119fe565b935083602082028501611ab185611a0f565b8060005b85811015611aed5784840389528151611ace8582611a69565b9450611ad983611a7d565b925060208a01995050600181019050611ab5565b50829750879550505050505092915050565b600081519050919050565b600082825260208201905092915050565b6000819050602082019050919050565b611b348161184d565b82525050565b6000611b468383611b2b565b60208301905092915050565b6000602082019050919050565b6000611b6a82611aff565b611b748185611b0a565b9350611b7f83611b1b565b8060005b83811015611bb0578151611b978882611b3a565b9750611ba283611b52565b925050600181019050611b83565b5085935050505092915050565b600081519050919050565b600082825260208201905092915050565b6000819050602082019050919050565b611bf281611811565b82525050565b6000611c048383611be9565b60208301905092915050565b6000602082019050919050565b6000611c2882611bbd565b611c328185611bc8565b9350611c3d83611bd9565b8060005b83811015611c6e578151611c558882611bf8565b9750611c6083611c10565b925050600181019050611c41565b5085935050505092915050565b600081519050919050565b600082825260208201905092915050565b6000819050602082019050919050565b611cb08161197e565b82525050565b6000611cc28383611ca7565b60208301905092915050565b6000602082019050919050565b6000611ce682611c7b565b611cf08185611c86565b9350611cfb83611c97565b8060005b83811015611d2c578151611d138882611cb6565b9750611d1e83611cce565b925050600181019050611cff565b5085935050505092915050565b600060a0820190508181036000830152611d538188611a8a565b90508181036020830152611d678187611b5f565b90508181036040830152611d7b8186611c1d565b90508181036060830152611d8f8185611cdb565b90508181036080830152611da38184611b5f565b90509695505050505050565b611db881611811565b8114611dc357600080fd5b50565b600081359050611dd581611daf565b92915050565b600060208284031215611df157611df061188b565b5b6000611dff84828501611dc6565b91505092915050565b7f4e487b7100000000000000000000000000000000000000000000000000000000600052602160045260246000fd5b60048110611e4857611e47611e08565b5b50565b6000819050611e5982611e37565b919050565b6000611e6982611e4b565b9050919050565b611e7981611e5e565b82525050565b6000602082019050611e946000830184611e70565b92915050565b600080fd5b600080fd5b7f4e487b7100000000000000000000000000000000000000000000000000000000600052604160045260246000fd5b611edc82611934565b810181811067ffffffffffffffff82111715611efb57611efa611ea4565b5b80604052505050565b6000611f0e611881565b9050611f1a8282611ed3565b919050565b600067ffffffffffffffff821115611f3a57611f39611ea4565b5b611f4382611934565b9050602081019050919050565b82818337600083830152505050565b6000611f72611f6d84611f1f565b611f04565b905082815260208101848484011115611f8e57611f8d611e9f565b5b611f99848285611f50565b509392505050565b600082601f830112611fb657611fb5611e9a565b5b8135611fc6848260208601611f5f565b91505092915050565b600080600060608486031215611fe857611fe761188b565b5b600084013567ffffffffffffffff81111561200657612005611890565b5b61201286828701611fa1565b935050602061202386828701611dc6565b9250506040612034868287016118ac565b9150509250925092565b7f4e487b7100000000000000000000000000000000000000000000000000000000600052601160045260246000fd5b60006120788261184d565b91507fffffffffffffffffffffffffffffffffffffffffffffffffffffffffffffffff82036120aa576120a961203e565b5b600182019050919050565b60006120c08261184d565b91506120cb8361184d565b92508282019050808211156120e3576120e261203e565b5b92915050565b60006040820190506120fe6000830185611823565b61210b6020830184611857565b9392505050565b600061211d8261184d565b91506121288361184d565b92508282026121368161184d565b9150828204841483151761214d5761214c61203e565b5b5092915050565b60006040820190506121696000830185611857565b6121766020830184611857565b9392505050565b7f4e487b7100000000000000000000000000000000000000000000000000000000600052601260045260246000fd5b60006121b78261184d565b91506121c28361184d565b9250826121d2576121d161217d565b5b828204905092915050565b7f4e487b7100000000000000000000000000000000000000000000000000000000600052602260045260246000fd5b6000600282049050600182168061222457607f821691505b602082108103612237576122366121dd565b5b50919050565b7f4e487b7100000000000000000000000000000000000000000000000000000000600052603260045260246000fd5b7f43616c6c6572206973206e6f74206f776e657200000000000000000000000000600082015250565b60006122a26013836118f9565b91506122ad8261226c565b602082019050919050565b600060208201905081810360008301526122d181612295565b9050919050565b60008190508160005260206000209050919050565b60006020601f8301049050919050565b600082821b905092915050565b60006008830261233a7fffffffffffffffffffffffffffffffffffffffffffffffffffffffffffffffff826122fd565b61234486836122fd565b95508019841693508086168417925050509392505050565b6000819050919050565b600061238161237c6123778461184d565b61235c565b61184d565b9050919050565b6000819050919050565b61239b83612366565b6123af6123a782612388565b84845461230a565b825550505050565b600090565b6123c46123b7565b6123cf818484612392565b505050565b5b818110156123f3576123e86000826123bc565b6001810190506123d5565b5050565b601f82111561243857612409816122d8565b612412846122ed565b81016020851015612421578190505b61243561242d856122ed565b8301826123d4565b50505b505050565b600082821c905092915050565b600061245b6000198460080261243d565b1980831691505092915050565b6000612474838361244a565b9150826002028217905092915050565b61248d826118ee565b67ffffffffffffffff8111156124a6576124a5611ea4565b5b6124b0825461220c565b6124bb8282856123f7565b600060209050601f8311600181146124ee57600084156124dc578287015190505b6124e68582612468565b86555061254e565b601f1984166124fc866122d8565b60005b82811015612524578489015182556001820191506020850194506020810190506124ff565b86831015612541578489015161253d601f89168261244a565b8355505b6001600288020188555050505b505050505050565b600060608201905081810360008301526125708186611945565b905061257f6020830185611823565b61258c6040830184611857565b94935050505056fea2646970667358221220954b14a9b25f52ac45b7d5e2bc3a1a1b09ef10186f32a5849502b47d1d3ee99664736f6c63430008110033",
  "linkReferences": {},
  "deployedLinkReferences": {}
}