{
  "_format": "hh-sol-artifact-1",
  "contractName": "CherrioProject",
  "sourceName": "src/web3/contracts/CherrioProject.sol",
  "abi": [
    {
      "inputs": [
        {
          "internalType": "uint256",
          "name": "_duration",
          "type": "uint256"
        },
        {
          "internalType": "uint256",
          "name": "_goal",
          "type": "uint256"
        }
      ],
      "stateMutability": "nonpayable",
      "type": "constructor"
    },
    {
      "anonymous": false,
      "inputs": [
        {
          "indexed": false,
          "internalType": "string",
          "name": "description",
          "type": "string"
        },
        {
          "indexed": false,
          "internalType": "address",
          "name": "recipient",
          "type": "address"
        },
        {
          "indexed": false,
          "internalType": "uint256",
          "name": "value",
          "type": "uint256"
        }
      ],
      "name": "CreateSpendingRequest",
      "type": "event"
    },
    {
      "anonymous": false,
      "inputs": [
        {
          "indexed": false,
          "internalType": "address",
          "name": "donor",
          "type": "address"
        },
        {
          "indexed": false,
          "internalType": "uint256",
          "name": "value",
          "type": "uint256"
        }
      ],
      "name": "Donation",
      "type": "event"
    },
    {
      "anonymous": false,
      "inputs": [
        {
          "indexed": false,
          "internalType": "uint256",
          "name": "index",
          "type": "uint256"
        },
        {
          "indexed": false,
          "internalType": "uint256",
          "name": "value",
          "type": "uint256"
        }
      ],
      "name": "MakePayment",
      "type": "event"
    },
    {
      "anonymous": false,
      "inputs": [
        {
          "indexed": false,
          "internalType": "uint256",
          "name": "startedAt",
          "type": "uint256"
        },
        {
          "indexed": false,
          "internalType": "uint256",
          "name": "endedAt",
          "type": "uint256"
        }
      ],
      "name": "ProjectActivated",
      "type": "event"
    },
    {
      "anonymous": false,
      "inputs": [],
      "name": "ProjectEnded",
      "type": "event"
    },
    {
      "anonymous": false,
      "inputs": [
        {
          "indexed": false,
          "internalType": "uint256",
          "name": "index",
          "type": "uint256"
        },
        {
          "indexed": false,
          "internalType": "uint256",
          "name": "numberOfVoters",
          "type": "uint256"
        }
      ],
      "name": "VoteForRequest",
      "type": "event"
    },
    {
      "inputs": [],
      "name": "activate",
      "outputs": [],
      "stateMutability": "nonpayable",
      "type": "function"
    },
    {
      "inputs": [],
      "name": "admin",
      "outputs": [
        {
          "internalType": "address",
          "name": "",
          "type": "address"
        }
      ],
      "stateMutability": "view",
      "type": "function"
    },
    {
      "inputs": [],
      "name": "cherrioProjectActivator",
      "outputs": [
        {
          "internalType": "address",
          "name": "",
          "type": "address"
        }
      ],
      "stateMutability": "view",
      "type": "function"
    },
    {
      "inputs": [
        {
          "internalType": "string",
          "name": "_description",
          "type": "string"
        },
        {
          "internalType": "address",
          "name": "_recipient",
          "type": "address"
        },
        {
          "internalType": "uint256",
          "name": "_value",
          "type": "uint256"
        }
      ],
      "name": "createSpendingRequest",
      "outputs": [],
      "stateMutability": "nonpayable",
      "type": "function"
    },
    {
      "inputs": [],
      "name": "donate",
      "outputs": [],
      "stateMutability": "payable",
      "type": "function"
    },
    {
      "inputs": [
        {
          "internalType": "address",
          "name": "",
          "type": "address"
        }
      ],
      "name": "donations",
      "outputs": [
        {
          "internalType": "uint256",
          "name": "",
          "type": "uint256"
        }
      ],
      "stateMutability": "view",
      "type": "function"
    },
    {
      "inputs": [],
      "name": "duration",
      "outputs": [
        {
          "internalType": "uint256",
          "name": "",
          "type": "uint256"
        }
      ],
      "stateMutability": "view",
      "type": "function"
    },
    {
      "inputs": [],
      "name": "endedAt",
      "outputs": [
        {
          "internalType": "uint256",
          "name": "",
          "type": "uint256"
        }
      ],
      "stateMutability": "view",
      "type": "function"
    },
    {
      "inputs": [],
      "name": "getCurrentTime",
      "outputs": [
        {
          "internalType": "uint256",
          "name": "",
          "type": "uint256"
        }
      ],
      "stateMutability": "view",
      "type": "function"
    },
    {
      "inputs": [],
      "name": "getRefund",
      "outputs": [],
      "stateMutability": "nonpayable",
      "type": "function"
    },
    {
      "inputs": [],
      "name": "goal",
      "outputs": [
        {
          "internalType": "uint256",
          "name": "",
          "type": "uint256"
        }
      ],
      "stateMutability": "view",
      "type": "function"
    },
    {
      "inputs": [
        {
          "internalType": "uint256",
          "name": "index",
          "type": "uint256"
        }
      ],
      "name": "makePayment",
      "outputs": [],
      "stateMutability": "nonpayable",
      "type": "function"
    },
    {
      "inputs": [],
      "name": "minimumDonation",
      "outputs": [
        {
          "internalType": "uint256",
          "name": "",
          "type": "uint256"
        }
      ],
      "stateMutability": "view",
      "type": "function"
    },
    {
      "inputs": [],
      "name": "raisedAmount",
      "outputs": [
        {
          "internalType": "uint256",
          "name": "",
          "type": "uint256"
        }
      ],
      "stateMutability": "view",
      "type": "function"
    },
    {
      "inputs": [
        {
          "internalType": "uint256",
          "name": "_value",
          "type": "uint256"
        }
      ],
      "name": "setMinimumDonation",
      "outputs": [],
      "stateMutability": "nonpayable",
      "type": "function"
    },
    {
      "inputs": [],
      "name": "stage",
      "outputs": [
        {
          "internalType": "enum CherrioProject.Stages",
          "name": "",
          "type": "uint8"
        }
      ],
      "stateMutability": "view",
      "type": "function"
    },
    {
      "inputs": [],
      "name": "startedAt",
      "outputs": [
        {
          "internalType": "uint256",
          "name": "",
          "type": "uint256"
        }
      ],
      "stateMutability": "view",
      "type": "function"
    },
    {
      "inputs": [],
      "name": "totalDonors",
      "outputs": [
        {
          "internalType": "uint256",
          "name": "",
          "type": "uint256"
        }
      ],
      "stateMutability": "view",
      "type": "function"
    },
    {
      "inputs": [
        {
          "internalType": "uint256",
          "name": "index",
          "type": "uint256"
        }
      ],
      "name": "voteForRequest",
      "outputs": [],
      "stateMutability": "nonpayable",
      "type": "function"
    },
    {
      "stateMutability": "payable",
      "type": "receive"
    }
  ],
  "bytecode": "0x60806040523480156200001157600080fd5b506040516200198b3803806200198b833981810160405281019062000037919062000170565b81600881905550806005819055506000600960006101000a81548160ff021916908360038111156200006e576200006d620001b7565b5b02179055506402540be4006002819055507378b881eb26db03b49239db7cd7b2c92f95d9d63c6000806101000a81548173ffffffffffffffffffffffffffffffffffffffff021916908373ffffffffffffffffffffffffffffffffffffffff16021790555073189f0ba9bbe1ce0db38427b8b1bbb199d8dbd1df600160006101000a81548173ffffffffffffffffffffffffffffffffffffffff021916908373ffffffffffffffffffffffffffffffffffffffff1602179055505050620001e6565b600080fd5b6000819050919050565b6200014a8162000135565b81146200015657600080fd5b50565b6000815190506200016a816200013f565b92915050565b600080604083850312156200018a576200018962000130565b5b60006200019a8582860162000159565b9250506020620001ad8582860162000159565b9150509250929050565b7f4e487b7100000000000000000000000000000000000000000000000000000000600052602160045260246000fd5b61179580620001f66000396000f3fe6080604052600436106101185760003560e01c806396d8f4f3116100a0578063cc6cb19a11610064578063cc6cb19a14610358578063d01ca19214610395578063ed88c68e146103be578063f21f537d146103c8578063f851a440146103f357610127565b806396d8f4f314610297578063b2d5ae44146102c2578063c040e6b8146102d9578063c59ee1dc14610304578063c63172471461032f57610127565b806329cb924d116100e757806329cb924d146101c45780633d6a71e4146101ef578063401938831461021a5780635114cb5214610245578063700127ef1461026e57610127565b8063066eec6f1461012c5780630f15f4c0146101575780630fb5a6b41461016e57806325c302e41461019957610127565b366101275761012561041e565b005b600080fd5b34801561013857600080fd5b5061014161066d565b60405161014e9190610ec9565b60405180910390f35b34801561016357600080fd5b5061016c610693565b005b34801561017a57600080fd5b5061018361081c565b6040516101909190610efd565b60405180910390f35b3480156101a557600080fd5b506101ae610822565b6040516101bb9190610efd565b60405180910390f35b3480156101d057600080fd5b506101d9610828565b6040516101e69190610efd565b60405180910390f35b3480156101fb57600080fd5b50610204610830565b6040516102119190610efd565b60405180910390f35b34801561022657600080fd5b5061022f610836565b60405161023c9190610efd565b60405180910390f35b34801561025157600080fd5b5061026c60048036038101906102679190610f58565b61083c565b005b34801561027a57600080fd5b5061029560048036038101906102909190610f58565b6109b8565b005b3480156102a357600080fd5b506102ac610b2f565b6040516102b99190610efd565b60405180910390f35b3480156102ce57600080fd5b506102d7610b35565b005b3480156102e557600080fd5b506102ee610c6d565b6040516102fb9190610ffc565b60405180910390f35b34801561031057600080fd5b50610319610c80565b6040516103269190610efd565b60405180910390f35b34801561033b57600080fd5b5061035660048036038101906103519190610f58565b610c86565b005b34801561036457600080fd5b5061037f600480360381019061037a9190611043565b610cfb565b60405161038c9190610efd565b60405180910390f35b3480156103a157600080fd5b506103bc60048036038101906103b791906111b6565b610d13565b005b6103c661041e565b005b3480156103d457600080fd5b506103dd610e5e565b6040516103ea9190610efd565b60405180910390f35b3480156103ff57600080fd5b50610408610e64565b6040516104159190610ec9565b60405180910390f35b600180600381111561043357610432610f85565b5b600960009054906101000a900460ff16600381111561045557610454610f85565b5b1461045f57600080fd5b60025434101561046e57600080fd5b60045442111561047d57600080fd5b6000600b60003373ffffffffffffffffffffffffffffffffffffffff1673ffffffffffffffffffffffffffffffffffffffff16815260200190815260200160002054036104dd57600760008154809291906104d790611254565b91905055505b34600b60003373ffffffffffffffffffffffffffffffffffffffff1673ffffffffffffffffffffffffffffffffffffffff168152602001908152602001600020600082825461052c919061129c565b925050819055503460066000828254610545919061129c565b925050819055507f5d8bc849764969eb1bcc6d0a2f55999d0167c1ccec240a4f39cf664ca9c4148e333460405161057d9291906112d0565b60405180910390a16005546006541061066a576002600960006101000a81548160ff021916908360038111156105b6576105b5610f85565b5b0217905550600160009054906101000a900473ffffffffffffffffffffffffffffffffffffffff1673ffffffffffffffffffffffffffffffffffffffff16631149a81a6040518163ffffffff1660e01b8152600401600060405180830381600087803b15801561062557600080fd5b505af1158015610639573d6000803e3d6000fd5b505050507fb9463297fc1a772a9ee3468d06837a7c7421578c79ea7f08e0abf74b373ceb8960405160405180910390a15b50565b600160009054906101000a900473ffffffffffffffffffffffffffffffffffffffff1681565b60008060038111156106a8576106a7610f85565b5b600960009054906101000a900460ff1660038111156106ca576106c9610f85565b5b146106d457600080fd5b3360008054906101000a900473ffffffffffffffffffffffffffffffffffffffff1673ffffffffffffffffffffffffffffffffffffffff168173ffffffffffffffffffffffffffffffffffffffff16148061077c5750600160009054906101000a900473ffffffffffffffffffffffffffffffffffffffff1673ffffffffffffffffffffffffffffffffffffffff168173ffffffffffffffffffffffffffffffffffffffff16145b61078557600080fd5b6001600960006101000a81548160ff021916908360038111156107ab576107aa610f85565b5b021790555042600381905550620151806008546107c891906112f9565b6003546107d5919061129c565b6004819055507fd8f5696084a3b4d96924b5a9b4b22cb80f2980b30fe04b79ec8c9a8981bbb9cd60035460045460405161081092919061133b565b60405180910390a15050565b60085481565b60075481565b600042905090565b60045481565b60055481565b60008054906101000a900473ffffffffffffffffffffffffffffffffffffffff1673ffffffffffffffffffffffffffffffffffffffff163373ffffffffffffffffffffffffffffffffffffffff161461089457600080fd5b6000600c60008381526020019081526020016000209050600015158160020160149054906101000a900460ff161515146108cd57600080fd5b60026007546108dc9190611393565b8160030154116108eb57600080fd5b8060020160009054906101000a900473ffffffffffffffffffffffffffffffffffffffff1673ffffffffffffffffffffffffffffffffffffffff166108fc82600101549081150290604051600060405180830381858888f19350505050158015610959573d6000803e3d6000fd5b5060018160020160146101000a81548160ff0219169083151502179055507f0aa3645b8b35728ed15c92cd744063b1558a7b10bc77e492eab841d11e54df558282600101546040516109ac92919061133b565b60405180910390a15050565b6000600c600083815260200190815260200160002090506000600b60003373ffffffffffffffffffffffffffffffffffffffff1673ffffffffffffffffffffffffffffffffffffffff1681526020019081526020016000205411610a1b57600080fd5b600015158160040160003373ffffffffffffffffffffffffffffffffffffffff1673ffffffffffffffffffffffffffffffffffffffff16815260200190815260200160002060009054906101000a900460ff16151514610a7a57600080fd5b60018160040160003373ffffffffffffffffffffffffffffffffffffffff1673ffffffffffffffffffffffffffffffffffffffff16815260200190815260200160002060006101000a81548160ff021916908315150217905550806003016000815480929190610ae990611254565b91905055507f27e3b1a944add94f68b4ffdfd6d1d111973fb90fb71b79620749e66a7279e9d1828260030154604051610b2392919061133b565b60405180910390a15050565b60025481565b6004544211610b4357600080fd5b6005546006541115610b5457600080fd5b6000600b60003373ffffffffffffffffffffffffffffffffffffffff1673ffffffffffffffffffffffffffffffffffffffff1681526020019081526020016000205411610ba057600080fd5b3373ffffffffffffffffffffffffffffffffffffffff166108fc600b60003373ffffffffffffffffffffffffffffffffffffffff1673ffffffffffffffffffffffffffffffffffffffff168152602001908152602001600020549081150290604051600060405180830381858888f19350505050158015610c25573d6000803e3d6000fd5b506000600b60003373ffffffffffffffffffffffffffffffffffffffff1673ffffffffffffffffffffffffffffffffffffffff16815260200190815260200160002081905550565b600960009054906101000a900460ff1681565b60065481565b60008054906101000a900473ffffffffffffffffffffffffffffffffffffffff1673ffffffffffffffffffffffffffffffffffffffff163373ffffffffffffffffffffffffffffffffffffffff1614610cde57600080fd5b670de0b6b3a764000081610cf291906112f9565b60028190555050565b600b6020528060005260406000206000915090505481565b60008054906101000a900473ffffffffffffffffffffffffffffffffffffffff1673ffffffffffffffffffffffffffffffffffffffff163373ffffffffffffffffffffffffffffffffffffffff1614610d6b57600080fd5b6000600c6000600a6000815480929190610d8490611254565b919050558152602001908152602001600020905083816000019081610da991906115db565b50828160020160006101000a81548173ffffffffffffffffffffffffffffffffffffffff021916908373ffffffffffffffffffffffffffffffffffffffff1602179055508181600101819055506000816003018190555060008160020160146101000a81548160ff0219169083151502179055507fdf12aa56e2bc1c4efe140ef292f3cc2fa67d16660906126a5fb73205419c70cc848484604051610e5093929190611721565b60405180910390a150505050565b60035481565b60008054906101000a900473ffffffffffffffffffffffffffffffffffffffff1681565b600073ffffffffffffffffffffffffffffffffffffffff82169050919050565b6000610eb382610e88565b9050919050565b610ec381610ea8565b82525050565b6000602082019050610ede6000830184610eba565b92915050565b6000819050919050565b610ef781610ee4565b82525050565b6000602082019050610f126000830184610eee565b92915050565b6000604051905090565b600080fd5b600080fd5b610f3581610ee4565b8114610f4057600080fd5b50565b600081359050610f5281610f2c565b92915050565b600060208284031215610f6e57610f6d610f22565b5b6000610f7c84828501610f43565b91505092915050565b7f4e487b7100000000000000000000000000000000000000000000000000000000600052602160045260246000fd5b60048110610fc557610fc4610f85565b5b50565b6000819050610fd682610fb4565b919050565b6000610fe682610fc8565b9050919050565b610ff681610fdb565b82525050565b60006020820190506110116000830184610fed565b92915050565b61102081610ea8565b811461102b57600080fd5b50565b60008135905061103d81611017565b92915050565b60006020828403121561105957611058610f22565b5b60006110678482850161102e565b91505092915050565b600080fd5b600080fd5b6000601f19601f8301169050919050565b7f4e487b7100000000000000000000000000000000000000000000000000000000600052604160045260246000fd5b6110c38261107a565b810181811067ffffffffffffffff821117156110e2576110e161108b565b5b80604052505050565b60006110f5610f18565b905061110182826110ba565b919050565b600067ffffffffffffffff8211156111215761112061108b565b5b61112a8261107a565b9050602081019050919050565b82818337600083830152505050565b600061115961115484611106565b6110eb565b90508281526020810184848401111561117557611174611075565b5b611180848285611137565b509392505050565b600082601f83011261119d5761119c611070565b5b81356111ad848260208601611146565b91505092915050565b6000806000606084860312156111cf576111ce610f22565b5b600084013567ffffffffffffffff8111156111ed576111ec610f27565b5b6111f986828701611188565b935050602061120a8682870161102e565b925050604061121b86828701610f43565b9150509250925092565b7f4e487b7100000000000000000000000000000000000000000000000000000000600052601160045260246000fd5b600061125f82610ee4565b91507fffffffffffffffffffffffffffffffffffffffffffffffffffffffffffffffff820361129157611290611225565b5b600182019050919050565b60006112a782610ee4565b91506112b283610ee4565b92508282019050808211156112ca576112c9611225565b5b92915050565b60006040820190506112e56000830185610eba565b6112f26020830184610eee565b9392505050565b600061130482610ee4565b915061130f83610ee4565b925082820261131d81610ee4565b9150828204841483151761133457611333611225565b5b5092915050565b60006040820190506113506000830185610eee565b61135d6020830184610eee565b9392505050565b7f4e487b7100000000000000000000000000000000000000000000000000000000600052601260045260246000fd5b600061139e82610ee4565b91506113a983610ee4565b9250826113b9576113b8611364565b5b828204905092915050565b600081519050919050565b7f4e487b7100000000000000000000000000000000000000000000000000000000600052602260045260246000fd5b6000600282049050600182168061141657607f821691505b602082108103611429576114286113cf565b5b50919050565b60008190508160005260206000209050919050565b60006020601f8301049050919050565b600082821b905092915050565b6000600883026114917fffffffffffffffffffffffffffffffffffffffffffffffffffffffffffffffff82611454565b61149b8683611454565b95508019841693508086168417925050509392505050565b6000819050919050565b60006114d86114d36114ce84610ee4565b6114b3565b610ee4565b9050919050565b6000819050919050565b6114f2836114bd565b6115066114fe826114df565b848454611461565b825550505050565b600090565b61151b61150e565b6115268184846114e9565b505050565b5b8181101561154a5761153f600082611513565b60018101905061152c565b5050565b601f82111561158f576115608161142f565b61156984611444565b81016020851015611578578190505b61158c61158485611444565b83018261152b565b50505b505050565b600082821c905092915050565b60006115b260001984600802611594565b1980831691505092915050565b60006115cb83836115a1565b9150826002028217905092915050565b6115e4826113c4565b67ffffffffffffffff8111156115fd576115fc61108b565b5b61160782546113fe565b61161282828561154e565b600060209050601f8311600181146116455760008415611633578287015190505b61163d85826115bf565b8655506116a5565b601f1984166116538661142f565b60005b8281101561167b57848901518255600182019150602085019450602081019050611656565b868310156116985784890151611694601f8916826115a1565b8355505b6001600288020188555050505b505050505050565b600082825260208201905092915050565b60005b838110156116dc5780820151818401526020810190506116c1565b60008484015250505050565b60006116f3826113c4565b6116fd81856116ad565b935061170d8185602086016116be565b6117168161107a565b840191505092915050565b6000606082019050818103600083015261173b81866116e8565b905061174a6020830185610eba565b6117576040830184610eee565b94935050505056fea2646970667358221220dcbb6857498bc31c93d504c237e77232869c0c5924d4f86904bfa1f53c588cfe64736f6c63430008110033",
  "linkReferences": {},
  "deployedLinkReferences": {}
}