{
  "_format": "hh-sol-artifact-1",
  "contractName": "CherrioProject",
  "sourceName": "src/web3/contracts/CherrioProject.sol",
  "abi": [
    {
      "inputs": [
        {
          "internalType": "uint256",
          "name": "_duration",
          "type": "uint256"
        },
        {
          "internalType": "uint256",
          "name": "_goal",
          "type": "uint256"
        }
      ],
      "stateMutability": "nonpayable",
      "type": "constructor"
    },
    {
      "anonymous": false,
      "inputs": [
        {
          "indexed": false,
          "internalType": "address",
          "name": "donor",
          "type": "address"
        },
        {
          "indexed": false,
          "internalType": "uint256",
          "name": "amount",
          "type": "uint256"
        }
      ],
      "name": "Donate",
      "type": "event"
    },
    {
      "inputs": [],
      "name": "activate",
      "outputs": [],
      "stateMutability": "nonpayable",
      "type": "function"
    },
    {
      "inputs": [],
      "name": "admin",
      "outputs": [
        {
          "internalType": "address",
          "name": "",
          "type": "address"
        }
      ],
      "stateMutability": "view",
      "type": "function"
    },
    {
      "inputs": [],
      "name": "cherrioProjectActivator",
      "outputs": [
        {
          "internalType": "address",
          "name": "",
          "type": "address"
        }
      ],
      "stateMutability": "view",
      "type": "function"
    },
    {
      "inputs": [
        {
          "internalType": "string",
          "name": "_description",
          "type": "string"
        },
        {
          "internalType": "address",
          "name": "_recipient",
          "type": "address"
        },
        {
          "internalType": "uint256",
          "name": "_value",
          "type": "uint256"
        }
      ],
      "name": "createSpendingRequest",
      "outputs": [],
      "stateMutability": "nonpayable",
      "type": "function"
    },
    {
      "inputs": [],
      "name": "deadline",
      "outputs": [
        {
          "internalType": "uint256",
          "name": "",
          "type": "uint256"
        }
      ],
      "stateMutability": "view",
      "type": "function"
    },
    {
      "inputs": [],
      "name": "donate",
      "outputs": [],
      "stateMutability": "payable",
      "type": "function"
    },
    {
      "inputs": [
        {
          "internalType": "address",
          "name": "",
          "type": "address"
        }
      ],
      "name": "donations",
      "outputs": [
        {
          "internalType": "uint256",
          "name": "",
          "type": "uint256"
        }
      ],
      "stateMutability": "view",
      "type": "function"
    },
    {
      "inputs": [],
      "name": "duration",
      "outputs": [
        {
          "internalType": "uint256",
          "name": "",
          "type": "uint256"
        }
      ],
      "stateMutability": "view",
      "type": "function"
    },
    {
      "inputs": [],
      "name": "getBlockNumber",
      "outputs": [
        {
          "internalType": "uint256",
          "name": "",
          "type": "uint256"
        }
      ],
      "stateMutability": "view",
      "type": "function"
    },
    {
      "inputs": [],
      "name": "getRefund",
      "outputs": [],
      "stateMutability": "nonpayable",
      "type": "function"
    },
    {
      "inputs": [],
      "name": "goal",
      "outputs": [
        {
          "internalType": "uint256",
          "name": "",
          "type": "uint256"
        }
      ],
      "stateMutability": "view",
      "type": "function"
    },
    {
      "inputs": [
        {
          "internalType": "uint256",
          "name": "index",
          "type": "uint256"
        }
      ],
      "name": "makePayment",
      "outputs": [],
      "stateMutability": "nonpayable",
      "type": "function"
    },
    {
      "inputs": [],
      "name": "minimumDonation",
      "outputs": [
        {
          "internalType": "uint256",
          "name": "",
          "type": "uint256"
        }
      ],
      "stateMutability": "view",
      "type": "function"
    },
    {
      "inputs": [],
      "name": "raisedAmount",
      "outputs": [
        {
          "internalType": "uint256",
          "name": "",
          "type": "uint256"
        }
      ],
      "stateMutability": "view",
      "type": "function"
    },
    {
      "inputs": [],
      "name": "stage",
      "outputs": [
        {
          "internalType": "enum CherrioProject.Stages",
          "name": "",
          "type": "uint8"
        }
      ],
      "stateMutability": "view",
      "type": "function"
    },
    {
      "inputs": [],
      "name": "totalDonors",
      "outputs": [
        {
          "internalType": "uint256",
          "name": "",
          "type": "uint256"
        }
      ],
      "stateMutability": "view",
      "type": "function"
    },
    {
      "inputs": [
        {
          "internalType": "uint256",
          "name": "index",
          "type": "uint256"
        }
      ],
      "name": "voteForRequest",
      "outputs": [],
      "stateMutability": "nonpayable",
      "type": "function"
    },
    {
      "stateMutability": "payable",
      "type": "receive"
    }
  ],
  "bytecode": "0x608060405260006004553480156200001657600080fd5b506040516200165b3803806200165b83398181016040528101906200003c919062000177565b81600681905550806003819055506000600860006101000a81548160ff02191690836003811115620000735762000072620001be565b5b021790555066038d7ea4c6800060028190555073aae3b0b628e1b8918a0f0c648f5fac3cdfe61c9e6000806101000a81548173ffffffffffffffffffffffffffffffffffffffff021916908373ffffffffffffffffffffffffffffffffffffffff16021790555073204f0fc6c58f05614ae3327a0389c81f25c08ecb600160006101000a81548173ffffffffffffffffffffffffffffffffffffffff021916908373ffffffffffffffffffffffffffffffffffffffff1602179055505050620001ed565b600080fd5b6000819050919050565b62000151816200013c565b81146200015d57600080fd5b50565b600081519050620001718162000146565b92915050565b6000806040838503121562000191576200019062000137565b5b6000620001a18582860162000160565b9250506020620001b48582860162000160565b9150509250929050565b7f4e487b7100000000000000000000000000000000000000000000000000000000600052602160045260246000fd5b61145e80620001fd6000396000f3fe6080604052600436106101025760003560e01c8063700127ef11610095578063c59ee1dc11610064578063c59ee1dc146102ee578063cc6cb19a14610319578063d01ca19214610356578063ed88c68e1461037f578063f851a4401461038957610111565b8063700127ef1461025857806396d8f4f314610281578063b2d5ae44146102ac578063c040e6b8146102c357610111565b806329dcb0cf116100d157806329dcb0cf146101ae57806340193883146101d957806342cbb15c146102045780635114cb521461022f57610111565b8063066eec6f146101165780630f15f4c0146101415780630fb5a6b41461015857806325c302e41461018357610111565b366101115761010f6103b4565b005b600080fd5b34801561012257600080fd5b5061012b6105d7565b6040516101389190610caf565b60405180910390f35b34801561014d57600080fd5b506101566105fd565b005b34801561016457600080fd5b5061016d610732565b60405161017a9190610ce3565b60405180910390f35b34801561018f57600080fd5b50610198610738565b6040516101a59190610ce3565b60405180910390f35b3480156101ba57600080fd5b506101c361073e565b6040516101d09190610ce3565b60405180910390f35b3480156101e557600080fd5b506101ee610744565b6040516101fb9190610ce3565b60405180910390f35b34801561021057600080fd5b5061021961074a565b6040516102269190610ce3565b60405180910390f35b34801561023b57600080fd5b5061025660048036038101906102519190610d3e565b610752565b005b34801561026457600080fd5b5061027f600480360381019061027a9190610d3e565b610891565b005b34801561028d57600080fd5b506102966109cb565b6040516102a39190610ce3565b60405180910390f35b3480156102b857600080fd5b506102c16109d1565b005b3480156102cf57600080fd5b506102d8610b09565b6040516102e59190610de2565b60405180910390f35b3480156102fa57600080fd5b50610303610b1c565b6040516103109190610ce3565b60405180910390f35b34801561032557600080fd5b50610340600480360381019061033b9190610e29565b610b22565b60405161034d9190610ce3565b60405180910390f35b34801561036257600080fd5b5061037d60048036038101906103789190610f9c565b610b3a565b005b6103876103b4565b005b34801561039557600080fd5b5061039e610c4a565b6040516103ab9190610caf565b60405180910390f35b60018060038111156103c9576103c8610d6b565b5b600860009054906101000a900460ff1660038111156103eb576103ea610d6b565b5b146103f557600080fd5b60025434101561040457600080fd5b60075443111561041357600080fd5b6000600a60003373ffffffffffffffffffffffffffffffffffffffff1673ffffffffffffffffffffffffffffffffffffffff1681526020019081526020016000205403610473576005600081548092919061046d9061103a565b91905055505b34600a60003373ffffffffffffffffffffffffffffffffffffffff1673ffffffffffffffffffffffffffffffffffffffff16815260200190815260200160002060008282546104c29190611082565b9250508190555034600460008282546104db9190611082565b925050819055506003546004541061059b576002600860006101000a81548160ff0219169083600381111561051357610512610d6b565b5b0217905550600160009054906101000a900473ffffffffffffffffffffffffffffffffffffffff1673ffffffffffffffffffffffffffffffffffffffff16631149a81a6040518163ffffffff1660e01b8152600401600060405180830381600087803b15801561058257600080fd5b505af1158015610596573d6000803e3d6000fd5b505050505b7f0553260a2e46b0577270d8992db02d30856ca880144c72d6e9503760946aef1333346040516105cc9291906110b6565b60405180910390a150565b600160009054906101000a900473ffffffffffffffffffffffffffffffffffffffff1681565b600080600381111561061257610611610d6b565b5b600860009054906101000a900460ff16600381111561063457610633610d6b565b5b1461063e57600080fd5b3360008054906101000a900473ffffffffffffffffffffffffffffffffffffffff1673ffffffffffffffffffffffffffffffffffffffff168173ffffffffffffffffffffffffffffffffffffffff1614806106e65750600160009054906101000a900473ffffffffffffffffffffffffffffffffffffffff1673ffffffffffffffffffffffffffffffffffffffff168173ffffffffffffffffffffffffffffffffffffffff16145b6106ef57600080fd5b6001600860006101000a81548160ff0219169083600381111561071557610714610d6b565b5b0217905550600654436107289190611082565b6007819055505050565b60065481565b60055481565b60075481565b60035481565b600043905090565b60008054906101000a900473ffffffffffffffffffffffffffffffffffffffff1673ffffffffffffffffffffffffffffffffffffffff163373ffffffffffffffffffffffffffffffffffffffff16146107aa57600080fd5b6000600b60008381526020019081526020016000209050600015158160020160149054906101000a900460ff161515146107e357600080fd5b60026005546107f2919061110e565b81600301541161080157600080fd5b8060020160009054906101000a900473ffffffffffffffffffffffffffffffffffffffff1673ffffffffffffffffffffffffffffffffffffffff166108fc82600101549081150290604051600060405180830381858888f1935050505015801561086f573d6000803e3d6000fd5b5060018160020160146101000a81548160ff0219169083151502179055505050565b6000600b600083815260200190815260200160002090506000600a60003373ffffffffffffffffffffffffffffffffffffffff1673ffffffffffffffffffffffffffffffffffffffff16815260200190815260200160002054116108f457600080fd5b600015158160040160003373ffffffffffffffffffffffffffffffffffffffff1673ffffffffffffffffffffffffffffffffffffffff16815260200190815260200160002060009054906101000a900460ff1615151461095357600080fd5b60018160040160003373ffffffffffffffffffffffffffffffffffffffff1673ffffffffffffffffffffffffffffffffffffffff16815260200190815260200160002060006101000a81548160ff0219169083151502179055508060030160008154809291906109c29061103a565b91905055505050565b60025481565b60075443116109df57600080fd5b60035460045411156109f057600080fd5b6000600a60003373ffffffffffffffffffffffffffffffffffffffff1673ffffffffffffffffffffffffffffffffffffffff1681526020019081526020016000205411610a3c57600080fd5b3373ffffffffffffffffffffffffffffffffffffffff166108fc600a60003373ffffffffffffffffffffffffffffffffffffffff1673ffffffffffffffffffffffffffffffffffffffff168152602001908152602001600020549081150290604051600060405180830381858888f19350505050158015610ac1573d6000803e3d6000fd5b506000600a60003373ffffffffffffffffffffffffffffffffffffffff1673ffffffffffffffffffffffffffffffffffffffff16815260200190815260200160002081905550565b600860009054906101000a900460ff1681565b60045481565b600a6020528060005260406000206000915090505481565b60008054906101000a900473ffffffffffffffffffffffffffffffffffffffff1673ffffffffffffffffffffffffffffffffffffffff163373ffffffffffffffffffffffffffffffffffffffff1614610b9257600080fd5b6000600b600060096000815480929190610bab9061103a565b919050558152602001908152602001600020905083816000019081610bd09190611356565b50818160010181905550828160020160006101000a81548173ffffffffffffffffffffffffffffffffffffffff021916908373ffffffffffffffffffffffffffffffffffffffff1602179055506000816003018190555060008160020160146101000a81548160ff02191690831515021790555050505050565b60008054906101000a900473ffffffffffffffffffffffffffffffffffffffff1681565b600073ffffffffffffffffffffffffffffffffffffffff82169050919050565b6000610c9982610c6e565b9050919050565b610ca981610c8e565b82525050565b6000602082019050610cc46000830184610ca0565b92915050565b6000819050919050565b610cdd81610cca565b82525050565b6000602082019050610cf86000830184610cd4565b92915050565b6000604051905090565b600080fd5b600080fd5b610d1b81610cca565b8114610d2657600080fd5b50565b600081359050610d3881610d12565b92915050565b600060208284031215610d5457610d53610d08565b5b6000610d6284828501610d29565b91505092915050565b7f4e487b7100000000000000000000000000000000000000000000000000000000600052602160045260246000fd5b60048110610dab57610daa610d6b565b5b50565b6000819050610dbc82610d9a565b919050565b6000610dcc82610dae565b9050919050565b610ddc81610dc1565b82525050565b6000602082019050610df76000830184610dd3565b92915050565b610e0681610c8e565b8114610e1157600080fd5b50565b600081359050610e2381610dfd565b92915050565b600060208284031215610e3f57610e3e610d08565b5b6000610e4d84828501610e14565b91505092915050565b600080fd5b600080fd5b6000601f19601f8301169050919050565b7f4e487b7100000000000000000000000000000000000000000000000000000000600052604160045260246000fd5b610ea982610e60565b810181811067ffffffffffffffff82111715610ec857610ec7610e71565b5b80604052505050565b6000610edb610cfe565b9050610ee78282610ea0565b919050565b600067ffffffffffffffff821115610f0757610f06610e71565b5b610f1082610e60565b9050602081019050919050565b82818337600083830152505050565b6000610f3f610f3a84610eec565b610ed1565b905082815260208101848484011115610f5b57610f5a610e5b565b5b610f66848285610f1d565b509392505050565b600082601f830112610f8357610f82610e56565b5b8135610f93848260208601610f2c565b91505092915050565b600080600060608486031215610fb557610fb4610d08565b5b600084013567ffffffffffffffff811115610fd357610fd2610d0d565b5b610fdf86828701610f6e565b9350506020610ff086828701610e14565b925050604061100186828701610d29565b9150509250925092565b7f4e487b7100000000000000000000000000000000000000000000000000000000600052601160045260246000fd5b600061104582610cca565b91507fffffffffffffffffffffffffffffffffffffffffffffffffffffffffffffffff82036110775761107661100b565b5b600182019050919050565b600061108d82610cca565b915061109883610cca565b92508282019050808211156110b0576110af61100b565b5b92915050565b60006040820190506110cb6000830185610ca0565b6110d86020830184610cd4565b9392505050565b7f4e487b7100000000000000000000000000000000000000000000000000000000600052601260045260246000fd5b600061111982610cca565b915061112483610cca565b925082611134576111336110df565b5b828204905092915050565b600081519050919050565b7f4e487b7100000000000000000000000000000000000000000000000000000000600052602260045260246000fd5b6000600282049050600182168061119157607f821691505b6020821081036111a4576111a361114a565b5b50919050565b60008190508160005260206000209050919050565b60006020601f8301049050919050565b600082821b905092915050565b60006008830261120c7fffffffffffffffffffffffffffffffffffffffffffffffffffffffffffffffff826111cf565b61121686836111cf565b95508019841693508086168417925050509392505050565b6000819050919050565b600061125361124e61124984610cca565b61122e565b610cca565b9050919050565b6000819050919050565b61126d83611238565b6112816112798261125a565b8484546111dc565b825550505050565b600090565b611296611289565b6112a1818484611264565b505050565b5b818110156112c5576112ba60008261128e565b6001810190506112a7565b5050565b601f82111561130a576112db816111aa565b6112e4846111bf565b810160208510156112f3578190505b6113076112ff856111bf565b8301826112a6565b50505b505050565b600082821c905092915050565b600061132d6000198460080261130f565b1980831691505092915050565b6000611346838361131c565b9150826002028217905092915050565b61135f8261113f565b67ffffffffffffffff81111561137857611377610e71565b5b6113828254611179565b61138d8282856112c9565b600060209050601f8311600181146113c057600084156113ae578287015190505b6113b8858261133a565b865550611420565b601f1984166113ce866111aa565b60005b828110156113f6578489015182556001820191506020850194506020810190506113d1565b86831015611413578489015161140f601f89168261131c565b8355505b6001600288020188555050505b50505050505056fea26469706673582212206c20642565a5826e8506f4834d569d37d83c2d78ca42949e794826bdce62c89564736f6c63430008110033",
  "linkReferences": {},
  "deployedLinkReferences": {}
}