{
  "_format": "hh-sol-artifact-1",
  "contractName": "CherrioProject",
  "sourceName": "src/web3/contracts/CherrioProject.sol",
  "abi": [
    {
      "inputs": [
        {
          "internalType": "uint256",
          "name": "_deadline",
          "type": "uint256"
        },
        {
          "internalType": "uint256",
          "name": "_goal",
          "type": "uint256"
        }
      ],
      "stateMutability": "nonpayable",
      "type": "constructor"
    },
    {
      "anonymous": false,
      "inputs": [
        {
          "indexed": false,
          "internalType": "uint256",
          "name": "contribution",
          "type": "uint256"
        },
        {
          "indexed": false,
          "internalType": "address",
          "name": "contributor",
          "type": "address"
        }
      ],
      "name": "donations",
      "type": "event"
    },
    {
      "inputs": [],
      "name": "activate",
      "outputs": [],
      "stateMutability": "nonpayable",
      "type": "function"
    },
    {
      "inputs": [],
      "name": "admin",
      "outputs": [
        {
          "internalType": "address",
          "name": "",
          "type": "address"
        }
      ],
      "stateMutability": "view",
      "type": "function"
    },
    {
      "inputs": [],
      "name": "contribute",
      "outputs": [],
      "stateMutability": "payable",
      "type": "function"
    },
    {
      "inputs": [
        {
          "internalType": "address",
          "name": "",
          "type": "address"
        }
      ],
      "name": "contributions",
      "outputs": [
        {
          "internalType": "uint256",
          "name": "",
          "type": "uint256"
        }
      ],
      "stateMutability": "view",
      "type": "function"
    },
    {
      "inputs": [
        {
          "internalType": "string",
          "name": "_description",
          "type": "string"
        },
        {
          "internalType": "address",
          "name": "_recipient",
          "type": "address"
        },
        {
          "internalType": "uint256",
          "name": "_value",
          "type": "uint256"
        }
      ],
      "name": "createSpendingRequest",
      "outputs": [],
      "stateMutability": "nonpayable",
      "type": "function"
    },
    {
      "inputs": [],
      "name": "deadline",
      "outputs": [
        {
          "internalType": "uint256",
          "name": "",
          "type": "uint256"
        }
      ],
      "stateMutability": "view",
      "type": "function"
    },
    {
      "inputs": [],
      "name": "getBalance",
      "outputs": [
        {
          "internalType": "uint256",
          "name": "",
          "type": "uint256"
        }
      ],
      "stateMutability": "view",
      "type": "function"
    },
    {
      "inputs": [],
      "name": "getRefund",
      "outputs": [],
      "stateMutability": "nonpayable",
      "type": "function"
    },
    {
      "inputs": [],
      "name": "goal",
      "outputs": [
        {
          "internalType": "uint256",
          "name": "",
          "type": "uint256"
        }
      ],
      "stateMutability": "view",
      "type": "function"
    },
    {
      "inputs": [
        {
          "internalType": "uint256",
          "name": "index",
          "type": "uint256"
        }
      ],
      "name": "makePayment",
      "outputs": [],
      "stateMutability": "nonpayable",
      "type": "function"
    },
    {
      "inputs": [],
      "name": "minimumContribution",
      "outputs": [
        {
          "internalType": "uint256",
          "name": "",
          "type": "uint256"
        }
      ],
      "stateMutability": "view",
      "type": "function"
    },
    {
      "inputs": [],
      "name": "raisedAmount",
      "outputs": [
        {
          "internalType": "uint256",
          "name": "",
          "type": "uint256"
        }
      ],
      "stateMutability": "view",
      "type": "function"
    },
    {
      "inputs": [],
      "name": "stage",
      "outputs": [
        {
          "internalType": "enum CherrioProject.Stages",
          "name": "",
          "type": "uint8"
        }
      ],
      "stateMutability": "view",
      "type": "function"
    },
    {
      "inputs": [],
      "name": "totalContributors",
      "outputs": [
        {
          "internalType": "uint256",
          "name": "",
          "type": "uint256"
        }
      ],
      "stateMutability": "view",
      "type": "function"
    },
    {
      "inputs": [
        {
          "internalType": "uint256",
          "name": "index",
          "type": "uint256"
        }
      ],
      "name": "voteForRequest",
      "outputs": [],
      "stateMutability": "nonpayable",
      "type": "function"
    },
    {
      "stateMutability": "payable",
      "type": "receive"
    }
  ],
  "bytecode": "0x608060405260006005553480156200001657600080fd5b50604051620012b4380380620012b483398181016040528101906200003c919062000118565b6000600660146101000a81548160ff021916908360028111156200006557620000646200015f565b5b0217905550620f42406002819055508143620000829190620001bd565b6003819055508060048190555033600660006101000a81548173ffffffffffffffffffffffffffffffffffffffff021916908373ffffffffffffffffffffffffffffffffffffffff16021790555050506200021a565b600080fd5b6000819050919050565b620000f281620000dd565b8114620000fe57600080fd5b50565b6000815190506200011281620000e7565b92915050565b60008060408385031215620001325762000131620000d8565b5b6000620001428582860162000101565b9250506020620001558582860162000101565b9150509250929050565b7f4e487b7100000000000000000000000000000000000000000000000000000000600052602160045260246000fd5b7f4e487b7100000000000000000000000000000000000000000000000000000000600052601160045260246000fd5b6000620001ca82620000dd565b9150620001d783620000dd565b9250827fffffffffffffffffffffffffffffffffffffffffffffffffffffffffffffffff038211156200020f576200020e6200018e565b5b828201905092915050565b61108a806200022a6000396000f3fe6080604052600436106100ec5760003560e01c8063937e09b11161008a578063d01ca19211610059578063d01ca192146102bf578063d7bb99ba146102e8578063f251fc8c146102f2578063f851a4401461031d576100fb565b8063937e09b114610227578063b2d5ae4414610252578063c040e6b814610269578063c59ee1dc14610294576100fb565b806340193883116100c6578063401938831461016d57806342e94c90146101985780635114cb52146101d5578063700127ef146101fe576100fb565b80630f15f4c01461010057806312065fe01461011757806329dcb0cf14610142576100fb565b366100fb576100f9610348565b005b600080fd5b34801561010c57600080fd5b506101156104af565b005b34801561012357600080fd5b5061012c61051e565b6040516101399190610b18565b60405180910390f35b34801561014e57600080fd5b50610157610526565b6040516101649190610b18565b60405180910390f35b34801561017957600080fd5b5061018261052c565b60405161018f9190610b18565b60405180910390f35b3480156101a457600080fd5b506101bf60048036038101906101ba9190610ba5565b610532565b6040516101cc9190610b18565b60405180910390f35b3480156101e157600080fd5b506101fc60048036038101906101f79190610bfe565b61054a565b005b34801561020a57600080fd5b5061022560048036038101906102209190610bfe565b61068b565b005b34801561023357600080fd5b5061023c6107c4565b6040516102499190610b18565b60405180910390f35b34801561025e57600080fd5b506102676107ca565b005b34801561027557600080fd5b5061027e6108fe565b60405161028b9190610ca2565b60405180910390f35b3480156102a057600080fd5b506102a9610911565b6040516102b69190610b18565b60405180910390f35b3480156102cb57600080fd5b506102e660048036038101906102e19190610e03565b610917565b005b6102f0610348565b005b3480156102fe57600080fd5b50610307610a30565b6040516103149190610b18565b60405180910390f35b34801561032957600080fd5b50610332610a36565b60405161033f9190610e81565b60405180910390f35b600180600281111561035d5761035c610c2b565b5b600660149054906101000a900460ff16600281111561037f5761037e610c2b565b5b1461038957600080fd5b600254341161039757600080fd5b60035443106103a557600080fd5b60008060003373ffffffffffffffffffffffffffffffffffffffff1673ffffffffffffffffffffffffffffffffffffffff16815260200190815260200160002054141561040557600160008154809291906103ff90610ecb565b91905055505b346000803373ffffffffffffffffffffffffffffffffffffffff1673ffffffffffffffffffffffffffffffffffffffff16815260200190815260200160002060008282546104539190610f14565b92505081905550346005600082825461046c9190610f14565b925050819055507fee1554a35ca9f6ea2ae372a863f723c3717cf39c2d6ec8605aae1df3593e470234336040516104a4929190610f6a565b60405180910390a150565b60008060028111156104c4576104c3610c2b565b5b600660149054906101000a900460ff1660028111156104e6576104e5610c2b565b5b146104f057600080fd5b6001600660146101000a81548160ff0219169083600281111561051657610515610c2b565b5b021790555050565b600047905090565b60035481565b60045481565b60006020528060005260406000206000915090505481565b600660009054906101000a900473ffffffffffffffffffffffffffffffffffffffff1673ffffffffffffffffffffffffffffffffffffffff163373ffffffffffffffffffffffffffffffffffffffff16146105a457600080fd5b6000600860008381526020019081526020016000209050600015158160020160149054906101000a900460ff161515146105dd57600080fd5b60026001546105ec9190610fc2565b8160030154116105fb57600080fd5b8060020160009054906101000a900473ffffffffffffffffffffffffffffffffffffffff1673ffffffffffffffffffffffffffffffffffffffff166108fc82600101549081150290604051600060405180830381858888f19350505050158015610669573d6000803e3d6000fd5b5060018160020160146101000a81548160ff0219169083151502179055505050565b600060086000838152602001908152602001600020905060008060003373ffffffffffffffffffffffffffffffffffffffff1673ffffffffffffffffffffffffffffffffffffffff16815260200190815260200160002054116106ed57600080fd5b600015158160040160003373ffffffffffffffffffffffffffffffffffffffff1673ffffffffffffffffffffffffffffffffffffffff16815260200190815260200160002060009054906101000a900460ff1615151461074c57600080fd5b60018160040160003373ffffffffffffffffffffffffffffffffffffffff1673ffffffffffffffffffffffffffffffffffffffff16815260200190815260200160002060006101000a81548160ff0219169083151502179055508060030160008154809291906107bb90610ecb565b91905055505050565b60025481565b60035443116107d857600080fd5b600454600554106107e857600080fd5b60008060003373ffffffffffffffffffffffffffffffffffffffff1673ffffffffffffffffffffffffffffffffffffffff168152602001908152602001600020541161083357600080fd5b3373ffffffffffffffffffffffffffffffffffffffff166108fc6000803373ffffffffffffffffffffffffffffffffffffffff1673ffffffffffffffffffffffffffffffffffffffff168152602001908152602001600020549081150290604051600060405180830381858888f193505050501580156108b7573d6000803e3d6000fd5b5060008060003373ffffffffffffffffffffffffffffffffffffffff1673ffffffffffffffffffffffffffffffffffffffff16815260200190815260200160002081905550565b600660149054906101000a900460ff1681565b60055481565b600660009054906101000a900473ffffffffffffffffffffffffffffffffffffffff1673ffffffffffffffffffffffffffffffffffffffff163373ffffffffffffffffffffffffffffffffffffffff161461097157600080fd5b6000600860006007600081548092919061098a90610ecb565b9190505581526020019081526020016000209050838160000190805190602001906109b6929190610a5c565b50818160010181905550828160020160006101000a81548173ffffffffffffffffffffffffffffffffffffffff021916908373ffffffffffffffffffffffffffffffffffffffff1602179055506000816003018190555060008160020160146101000a81548160ff02191690831515021790555050505050565b60015481565b600660009054906101000a900473ffffffffffffffffffffffffffffffffffffffff1681565b828054610a6890611022565b90600052602060002090601f016020900481019282610a8a5760008555610ad1565b82601f10610aa357805160ff1916838001178555610ad1565b82800160010185558215610ad1579182015b82811115610ad0578251825591602001919060010190610ab5565b5b509050610ade9190610ae2565b5090565b5b80821115610afb576000816000905550600101610ae3565b5090565b6000819050919050565b610b1281610aff565b82525050565b6000602082019050610b2d6000830184610b09565b92915050565b6000604051905090565b600080fd5b600080fd5b600073ffffffffffffffffffffffffffffffffffffffff82169050919050565b6000610b7282610b47565b9050919050565b610b8281610b67565b8114610b8d57600080fd5b50565b600081359050610b9f81610b79565b92915050565b600060208284031215610bbb57610bba610b3d565b5b6000610bc984828501610b90565b91505092915050565b610bdb81610aff565b8114610be657600080fd5b50565b600081359050610bf881610bd2565b92915050565b600060208284031215610c1457610c13610b3d565b5b6000610c2284828501610be9565b91505092915050565b7f4e487b7100000000000000000000000000000000000000000000000000000000600052602160045260246000fd5b60038110610c6b57610c6a610c2b565b5b50565b6000819050610c7c82610c5a565b919050565b6000610c8c82610c6e565b9050919050565b610c9c81610c81565b82525050565b6000602082019050610cb76000830184610c93565b92915050565b600080fd5b600080fd5b6000601f19601f8301169050919050565b7f4e487b7100000000000000000000000000000000000000000000000000000000600052604160045260246000fd5b610d1082610cc7565b810181811067ffffffffffffffff82111715610d2f57610d2e610cd8565b5b80604052505050565b6000610d42610b33565b9050610d4e8282610d07565b919050565b600067ffffffffffffffff821115610d6e57610d6d610cd8565b5b610d7782610cc7565b9050602081019050919050565b82818337600083830152505050565b6000610da6610da184610d53565b610d38565b905082815260208101848484011115610dc257610dc1610cc2565b5b610dcd848285610d84565b509392505050565b600082601f830112610dea57610de9610cbd565b5b8135610dfa848260208601610d93565b91505092915050565b600080600060608486031215610e1c57610e1b610b3d565b5b600084013567ffffffffffffffff811115610e3a57610e39610b42565b5b610e4686828701610dd5565b9350506020610e5786828701610b90565b9250506040610e6886828701610be9565b9150509250925092565b610e7b81610b67565b82525050565b6000602082019050610e966000830184610e72565b92915050565b7f4e487b7100000000000000000000000000000000000000000000000000000000600052601160045260246000fd5b6000610ed682610aff565b91507fffffffffffffffffffffffffffffffffffffffffffffffffffffffffffffffff821415610f0957610f08610e9c565b5b600182019050919050565b6000610f1f82610aff565b9150610f2a83610aff565b9250827fffffffffffffffffffffffffffffffffffffffffffffffffffffffffffffffff03821115610f5f57610f5e610e9c565b5b828201905092915050565b6000604082019050610f7f6000830185610b09565b610f8c6020830184610e72565b9392505050565b7f4e487b7100000000000000000000000000000000000000000000000000000000600052601260045260246000fd5b6000610fcd82610aff565b9150610fd883610aff565b925082610fe857610fe7610f93565b5b828204905092915050565b7f4e487b7100000000000000000000000000000000000000000000000000000000600052602260045260246000fd5b6000600282049050600182168061103a57607f821691505b6020821081141561104e5761104d610ff3565b5b5091905056fea2646970667358221220b88fb6a766905cb08769d0dc30477f68292166a63baf78b03931994a7cc16b6d64736f6c63430008090033",
  "linkReferences": {},
  "deployedLinkReferences": {}
}