{
  "_format": "hh-sol-artifact-1",
  "contractName": "CherrioProject",
  "sourceName": "src/web3/contracts/CherrioProject.sol",
  "abi": [
    {
      "inputs": [
        {
          "internalType": "uint256",
          "name": "_duration",
          "type": "uint256"
        },
        {
          "internalType": "uint256",
          "name": "_goal",
          "type": "uint256"
        }
      ],
      "stateMutability": "nonpayable",
      "type": "constructor"
    },
    {
      "anonymous": false,
      "inputs": [
        {
          "indexed": false,
          "internalType": "address",
          "name": "donor",
          "type": "address"
        },
        {
          "indexed": false,
          "internalType": "uint256",
          "name": "amount",
          "type": "uint256"
        }
      ],
      "name": "Donate",
      "type": "event"
    },
    {
      "inputs": [],
      "name": "activate",
      "outputs": [],
      "stateMutability": "nonpayable",
      "type": "function"
    },
    {
      "inputs": [],
      "name": "admin",
      "outputs": [
        {
          "internalType": "address",
          "name": "",
          "type": "address"
        }
      ],
      "stateMutability": "view",
      "type": "function"
    },
    {
      "inputs": [],
      "name": "cherrioProjectActivator",
      "outputs": [
        {
          "internalType": "address",
          "name": "",
          "type": "address"
        }
      ],
      "stateMutability": "view",
      "type": "function"
    },
    {
      "inputs": [
        {
          "internalType": "string",
          "name": "_description",
          "type": "string"
        },
        {
          "internalType": "address",
          "name": "_recipient",
          "type": "address"
        },
        {
          "internalType": "uint256",
          "name": "_value",
          "type": "uint256"
        }
      ],
      "name": "createSpendingRequest",
      "outputs": [],
      "stateMutability": "nonpayable",
      "type": "function"
    },
    {
      "inputs": [],
      "name": "deadline",
      "outputs": [
        {
          "internalType": "uint256",
          "name": "",
          "type": "uint256"
        }
      ],
      "stateMutability": "view",
      "type": "function"
    },
    {
      "inputs": [],
      "name": "donate",
      "outputs": [],
      "stateMutability": "payable",
      "type": "function"
    },
    {
      "inputs": [
        {
          "internalType": "address",
          "name": "",
          "type": "address"
        }
      ],
      "name": "donations",
      "outputs": [
        {
          "internalType": "uint256",
          "name": "",
          "type": "uint256"
        }
      ],
      "stateMutability": "view",
      "type": "function"
    },
    {
      "inputs": [],
      "name": "duration",
      "outputs": [
        {
          "internalType": "uint256",
          "name": "",
          "type": "uint256"
        }
      ],
      "stateMutability": "view",
      "type": "function"
    },
    {
      "inputs": [],
      "name": "getCurrentTime",
      "outputs": [
        {
          "internalType": "uint256",
          "name": "",
          "type": "uint256"
        }
      ],
      "stateMutability": "view",
      "type": "function"
    },
    {
      "inputs": [],
      "name": "getRefund",
      "outputs": [],
      "stateMutability": "nonpayable",
      "type": "function"
    },
    {
      "inputs": [],
      "name": "goal",
      "outputs": [
        {
          "internalType": "uint256",
          "name": "",
          "type": "uint256"
        }
      ],
      "stateMutability": "view",
      "type": "function"
    },
    {
      "inputs": [
        {
          "internalType": "uint256",
          "name": "index",
          "type": "uint256"
        }
      ],
      "name": "makePayment",
      "outputs": [],
      "stateMutability": "nonpayable",
      "type": "function"
    },
    {
      "inputs": [],
      "name": "minimumDonation",
      "outputs": [
        {
          "internalType": "uint256",
          "name": "",
          "type": "uint256"
        }
      ],
      "stateMutability": "view",
      "type": "function"
    },
    {
      "inputs": [],
      "name": "raisedAmount",
      "outputs": [
        {
          "internalType": "uint256",
          "name": "",
          "type": "uint256"
        }
      ],
      "stateMutability": "view",
      "type": "function"
    },
    {
      "inputs": [],
      "name": "stage",
      "outputs": [
        {
          "internalType": "enum CherrioProject.Stages",
          "name": "",
          "type": "uint8"
        }
      ],
      "stateMutability": "view",
      "type": "function"
    },
    {
      "inputs": [],
      "name": "totalDonors",
      "outputs": [
        {
          "internalType": "uint256",
          "name": "",
          "type": "uint256"
        }
      ],
      "stateMutability": "view",
      "type": "function"
    },
    {
      "inputs": [
        {
          "internalType": "uint256",
          "name": "index",
          "type": "uint256"
        }
      ],
      "name": "voteForRequest",
      "outputs": [],
      "stateMutability": "nonpayable",
      "type": "function"
    },
    {
      "stateMutability": "payable",
      "type": "receive"
    }
  ],
  "bytecode": "0x60806040523480156200001157600080fd5b50604051620016a6380380620016a6833981810160405281019062000037919062000172565b81600781905550806003819055506000600860006101000a81548160ff021916908360038111156200006e576200006d620001b9565b5b021790555066038d7ea4c6800060028190555073aae3b0b628e1b8918a0f0c648f5fac3cdfe61c9e6000806101000a81548173ffffffffffffffffffffffffffffffffffffffff021916908373ffffffffffffffffffffffffffffffffffffffff16021790555073204f0fc6c58f05614ae3327a0389c81f25c08ecb600160006101000a81548173ffffffffffffffffffffffffffffffffffffffff021916908373ffffffffffffffffffffffffffffffffffffffff1602179055505050620001e8565b600080fd5b6000819050919050565b6200014c8162000137565b81146200015857600080fd5b50565b6000815190506200016c8162000141565b92915050565b600080604083850312156200018c576200018b62000132565b5b60006200019c858286016200015b565b9250506020620001af858286016200015b565b9150509250929050565b7f4e487b7100000000000000000000000000000000000000000000000000000000600052602160045260246000fd5b6114ae80620001f86000396000f3fe6080604052600436106101025760003560e01c8063700127ef11610095578063c59ee1dc11610064578063c59ee1dc146102ee578063cc6cb19a14610319578063d01ca19214610356578063ed88c68e1461037f578063f851a4401461038957610111565b8063700127ef1461025857806396d8f4f314610281578063b2d5ae44146102ac578063c040e6b8146102c357610111565b806329cb924d116100d157806329cb924d146101ae57806329dcb0cf146101d957806340193883146102045780635114cb521461022f57610111565b8063066eec6f146101165780630f15f4c0146101415780630fb5a6b41461015857806325c302e41461018357610111565b366101115761010f6103b4565b005b600080fd5b34801561012257600080fd5b5061012b6105d7565b6040516101389190610cbd565b60405180910390f35b34801561014d57600080fd5b506101566105fd565b005b34801561016457600080fd5b5061016d610740565b60405161017a9190610cf1565b60405180910390f35b34801561018f57600080fd5b50610198610746565b6040516101a59190610cf1565b60405180910390f35b3480156101ba57600080fd5b506101c361074c565b6040516101d09190610cf1565b60405180910390f35b3480156101e557600080fd5b506101ee610754565b6040516101fb9190610cf1565b60405180910390f35b34801561021057600080fd5b5061021961075a565b6040516102269190610cf1565b60405180910390f35b34801561023b57600080fd5b5061025660048036038101906102519190610d4c565b610760565b005b34801561026457600080fd5b5061027f600480360381019061027a9190610d4c565b61089f565b005b34801561028d57600080fd5b506102966109d9565b6040516102a39190610cf1565b60405180910390f35b3480156102b857600080fd5b506102c16109df565b005b3480156102cf57600080fd5b506102d8610b17565b6040516102e59190610df0565b60405180910390f35b3480156102fa57600080fd5b50610303610b2a565b6040516103109190610cf1565b60405180910390f35b34801561032557600080fd5b50610340600480360381019061033b9190610e37565b610b30565b60405161034d9190610cf1565b60405180910390f35b34801561036257600080fd5b5061037d60048036038101906103789190610faa565b610b48565b005b6103876103b4565b005b34801561039557600080fd5b5061039e610c58565b6040516103ab9190610cbd565b60405180910390f35b60018060038111156103c9576103c8610d79565b5b600860009054906101000a900460ff1660038111156103eb576103ea610d79565b5b146103f557600080fd5b60025434101561040457600080fd5b60055442111561041357600080fd5b6000600a60003373ffffffffffffffffffffffffffffffffffffffff1673ffffffffffffffffffffffffffffffffffffffff1681526020019081526020016000205403610473576006600081548092919061046d90611048565b91905055505b34600a60003373ffffffffffffffffffffffffffffffffffffffff1673ffffffffffffffffffffffffffffffffffffffff16815260200190815260200160002060008282546104c29190611090565b9250508190555034600460008282546104db9190611090565b925050819055506003546004541061059b576002600860006101000a81548160ff0219169083600381111561051357610512610d79565b5b0217905550600160009054906101000a900473ffffffffffffffffffffffffffffffffffffffff1673ffffffffffffffffffffffffffffffffffffffff16631149a81a6040518163ffffffff1660e01b8152600401600060405180830381600087803b15801561058257600080fd5b505af1158015610596573d6000803e3d6000fd5b505050505b7f0553260a2e46b0577270d8992db02d30856ca880144c72d6e9503760946aef1333346040516105cc9291906110c4565b60405180910390a150565b600160009054906101000a900473ffffffffffffffffffffffffffffffffffffffff1681565b600080600381111561061257610611610d79565b5b600860009054906101000a900460ff16600381111561063457610633610d79565b5b1461063e57600080fd5b3360008054906101000a900473ffffffffffffffffffffffffffffffffffffffff1673ffffffffffffffffffffffffffffffffffffffff168173ffffffffffffffffffffffffffffffffffffffff1614806106e65750600160009054906101000a900473ffffffffffffffffffffffffffffffffffffffff1673ffffffffffffffffffffffffffffffffffffffff168173ffffffffffffffffffffffffffffffffffffffff16145b6106ef57600080fd5b6001600860006101000a81548160ff0219169083600381111561071557610714610d79565b5b02179055506201518060075461072b91906110ed565b426107369190611090565b6005819055505050565b60075481565b60065481565b600042905090565b60055481565b60035481565b60008054906101000a900473ffffffffffffffffffffffffffffffffffffffff1673ffffffffffffffffffffffffffffffffffffffff163373ffffffffffffffffffffffffffffffffffffffff16146107b857600080fd5b6000600b60008381526020019081526020016000209050600015158160020160149054906101000a900460ff161515146107f157600080fd5b6002600654610800919061115e565b81600301541161080f57600080fd5b8060020160009054906101000a900473ffffffffffffffffffffffffffffffffffffffff1673ffffffffffffffffffffffffffffffffffffffff166108fc82600101549081150290604051600060405180830381858888f1935050505015801561087d573d6000803e3d6000fd5b5060018160020160146101000a81548160ff0219169083151502179055505050565b6000600b600083815260200190815260200160002090506000600a60003373ffffffffffffffffffffffffffffffffffffffff1673ffffffffffffffffffffffffffffffffffffffff168152602001908152602001600020541161090257600080fd5b600015158160040160003373ffffffffffffffffffffffffffffffffffffffff1673ffffffffffffffffffffffffffffffffffffffff16815260200190815260200160002060009054906101000a900460ff1615151461096157600080fd5b60018160040160003373ffffffffffffffffffffffffffffffffffffffff1673ffffffffffffffffffffffffffffffffffffffff16815260200190815260200160002060006101000a81548160ff0219169083151502179055508060030160008154809291906109d090611048565b91905055505050565b60025481565b60055442116109ed57600080fd5b60035460045411156109fe57600080fd5b6000600a60003373ffffffffffffffffffffffffffffffffffffffff1673ffffffffffffffffffffffffffffffffffffffff1681526020019081526020016000205411610a4a57600080fd5b3373ffffffffffffffffffffffffffffffffffffffff166108fc600a60003373ffffffffffffffffffffffffffffffffffffffff1673ffffffffffffffffffffffffffffffffffffffff168152602001908152602001600020549081150290604051600060405180830381858888f19350505050158015610acf573d6000803e3d6000fd5b506000600a60003373ffffffffffffffffffffffffffffffffffffffff1673ffffffffffffffffffffffffffffffffffffffff16815260200190815260200160002081905550565b600860009054906101000a900460ff1681565b60045481565b600a6020528060005260406000206000915090505481565b60008054906101000a900473ffffffffffffffffffffffffffffffffffffffff1673ffffffffffffffffffffffffffffffffffffffff163373ffffffffffffffffffffffffffffffffffffffff1614610ba057600080fd5b6000600b600060096000815480929190610bb990611048565b919050558152602001908152602001600020905083816000019081610bde91906113a6565b50818160010181905550828160020160006101000a81548173ffffffffffffffffffffffffffffffffffffffff021916908373ffffffffffffffffffffffffffffffffffffffff1602179055506000816003018190555060008160020160146101000a81548160ff02191690831515021790555050505050565b60008054906101000a900473ffffffffffffffffffffffffffffffffffffffff1681565b600073ffffffffffffffffffffffffffffffffffffffff82169050919050565b6000610ca782610c7c565b9050919050565b610cb781610c9c565b82525050565b6000602082019050610cd26000830184610cae565b92915050565b6000819050919050565b610ceb81610cd8565b82525050565b6000602082019050610d066000830184610ce2565b92915050565b6000604051905090565b600080fd5b600080fd5b610d2981610cd8565b8114610d3457600080fd5b50565b600081359050610d4681610d20565b92915050565b600060208284031215610d6257610d61610d16565b5b6000610d7084828501610d37565b91505092915050565b7f4e487b7100000000000000000000000000000000000000000000000000000000600052602160045260246000fd5b60048110610db957610db8610d79565b5b50565b6000819050610dca82610da8565b919050565b6000610dda82610dbc565b9050919050565b610dea81610dcf565b82525050565b6000602082019050610e056000830184610de1565b92915050565b610e1481610c9c565b8114610e1f57600080fd5b50565b600081359050610e3181610e0b565b92915050565b600060208284031215610e4d57610e4c610d16565b5b6000610e5b84828501610e22565b91505092915050565b600080fd5b600080fd5b6000601f19601f8301169050919050565b7f4e487b7100000000000000000000000000000000000000000000000000000000600052604160045260246000fd5b610eb782610e6e565b810181811067ffffffffffffffff82111715610ed657610ed5610e7f565b5b80604052505050565b6000610ee9610d0c565b9050610ef58282610eae565b919050565b600067ffffffffffffffff821115610f1557610f14610e7f565b5b610f1e82610e6e565b9050602081019050919050565b82818337600083830152505050565b6000610f4d610f4884610efa565b610edf565b905082815260208101848484011115610f6957610f68610e69565b5b610f74848285610f2b565b509392505050565b600082601f830112610f9157610f90610e64565b5b8135610fa1848260208601610f3a565b91505092915050565b600080600060608486031215610fc357610fc2610d16565b5b600084013567ffffffffffffffff811115610fe157610fe0610d1b565b5b610fed86828701610f7c565b9350506020610ffe86828701610e22565b925050604061100f86828701610d37565b9150509250925092565b7f4e487b7100000000000000000000000000000000000000000000000000000000600052601160045260246000fd5b600061105382610cd8565b91507fffffffffffffffffffffffffffffffffffffffffffffffffffffffffffffffff820361108557611084611019565b5b600182019050919050565b600061109b82610cd8565b91506110a683610cd8565b92508282019050808211156110be576110bd611019565b5b92915050565b60006040820190506110d96000830185610cae565b6110e66020830184610ce2565b9392505050565b60006110f882610cd8565b915061110383610cd8565b925082820261111181610cd8565b9150828204841483151761112857611127611019565b5b5092915050565b7f4e487b7100000000000000000000000000000000000000000000000000000000600052601260045260246000fd5b600061116982610cd8565b915061117483610cd8565b9250826111845761118361112f565b5b828204905092915050565b600081519050919050565b7f4e487b7100000000000000000000000000000000000000000000000000000000600052602260045260246000fd5b600060028204905060018216806111e157607f821691505b6020821081036111f4576111f361119a565b5b50919050565b60008190508160005260206000209050919050565b60006020601f8301049050919050565b600082821b905092915050565b60006008830261125c7fffffffffffffffffffffffffffffffffffffffffffffffffffffffffffffffff8261121f565b611266868361121f565b95508019841693508086168417925050509392505050565b6000819050919050565b60006112a361129e61129984610cd8565b61127e565b610cd8565b9050919050565b6000819050919050565b6112bd83611288565b6112d16112c9826112aa565b84845461122c565b825550505050565b600090565b6112e66112d9565b6112f18184846112b4565b505050565b5b818110156113155761130a6000826112de565b6001810190506112f7565b5050565b601f82111561135a5761132b816111fa565b6113348461120f565b81016020851015611343578190505b61135761134f8561120f565b8301826112f6565b50505b505050565b600082821c905092915050565b600061137d6000198460080261135f565b1980831691505092915050565b6000611396838361136c565b9150826002028217905092915050565b6113af8261118f565b67ffffffffffffffff8111156113c8576113c7610e7f565b5b6113d282546111c9565b6113dd828285611319565b600060209050601f83116001811461141057600084156113fe578287015190505b611408858261138a565b865550611470565b601f19841661141e866111fa565b60005b8281101561144657848901518255600182019150602085019450602081019050611421565b86831015611463578489015161145f601f89168261136c565b8355505b6001600288020188555050505b50505050505056fea2646970667358221220cf2fd548c15545de3dba9b2b2c3d63bfc0a95ec80f71e59b8c2cde19b6082db864736f6c63430008110033",
  "linkReferences": {},
  "deployedLinkReferences": {}
}